{
  "contractName": "Produits",
  "abi": [
    {
      "constant": true,
      "inputs": [
        {
          "name": "",
          "type": "uint256"
        }
      ],
      "name": "listeProduits",
      "outputs": [
        {
          "name": "uuid",
          "type": "uint256"
        },
        {
          "name": "categorie",
          "type": "string"
        },
        {
          "name": "titre",
          "type": "string"
        },
        {
          "name": "description",
          "type": "string"
        },
        {
          "name": "prix",
          "type": "uint256"
        },
        {
          "name": "devise",
          "type": "string"
        },
        {
          "name": "user",
          "type": "address"
        }
      ],
      "payable": false,
      "stateMutability": "view",
      "type": "function"
    },
    {
      "inputs": [],
      "payable": false,
      "stateMutability": "nonpayable",
      "type": "constructor"
    },
    {
      "anonymous": false,
      "inputs": [
        {
          "indexed": false,
          "name": "id",
          "type": "uint256"
        }
      ],
      "name": "newProduitAdd",
      "type": "event"
    },
    {
      "anonymous": false,
      "inputs": [
        {
          "indexed": false,
          "name": "id",
          "type": "uint256"
        }
      ],
      "name": "produitUpdated",
      "type": "event"
    },
    {
      "anonymous": false,
      "inputs": [
        {
          "indexed": false,
          "name": "id",
          "type": "uint256"
        }
      ],
      "name": "supprimerProduit",
      "type": "event"
    },
    {
      "constant": false,
      "inputs": [
        {
          "name": "_newCategorie",
          "type": "string"
        },
        {
          "name": "_newTitre",
          "type": "string"
        },
        {
          "name": "_newDescription",
          "type": "string"
        },
        {
          "name": "_newPrix",
          "type": "uint256"
        },
        {
          "name": "_newDevise",
          "type": "string"
        }
      ],
      "name": "registerProduit",
      "outputs": [
        {
          "name": "",
          "type": "uint256"
        }
      ],
      "payable": false,
      "stateMutability": "nonpayable",
      "type": "function"
    },
    {
      "constant": true,
      "inputs": [
        {
          "name": "_id",
          "type": "uint256"
        }
      ],
      "name": "getProduitById",
      "outputs": [
        {
          "name": "",
          "type": "uint256"
        },
        {
          "name": "",
          "type": "string"
        },
        {
          "name": "",
          "type": "string"
        },
        {
          "name": "",
          "type": "string"
        },
        {
          "name": "",
          "type": "uint256"
        },
        {
          "name": "",
          "type": "string"
        },
        {
          "name": "",
          "type": "address"
        }
      ],
      "payable": false,
      "stateMutability": "view",
      "type": "function"
    },
    {
      "constant": true,
      "inputs": [
        {
          "name": "id",
          "type": "uint256"
        }
      ],
      "name": "getItemPrice",
      "outputs": [
        {
          "name": "",
          "type": "uint256"
        }
      ],
      "payable": false,
      "stateMutability": "view",
      "type": "function"
    },
    {
      "constant": false,
      "inputs": [
        {
          "name": "id",
          "type": "uint256"
        },
        {
          "name": "_uuid",
          "type": "uint256"
        },
        {
          "name": "_categorie",
          "type": "string"
        },
        {
          "name": "_titre",
          "type": "string"
        },
        {
          "name": "_description",
          "type": "string"
        },
        {
          "name": "_prix",
          "type": "uint256"
        },
        {
          "name": "_devise",
          "type": "string"
        }
      ],
      "name": "updateUnProduit",
      "outputs": [
        {
          "name": "",
          "type": "bool"
        }
      ],
      "payable": false,
      "stateMutability": "nonpayable",
      "type": "function"
    },
    {
      "constant": false,
      "inputs": [
        {
          "name": "id",
          "type": "uint256"
        }
      ],
      "name": "deleteUnproduit",
      "outputs": [
        {
          "name": "",
          "type": "bool"
        }
      ],
      "payable": false,
      "stateMutability": "nonpayable",
      "type": "function"
    },
    {
      "constant": true,
      "inputs": [],
      "name": "totalProduits",
      "outputs": [
        {
          "name": "",
          "type": "uint256"
        }
      ],
      "payable": false,
      "stateMutability": "view",
      "type": "function"
    }
  ],
  "bytecode": "0x60806040523480156200001157600080fd5b506200006660405180602001604052806000815250604051806020016040528060008152506040518060200160405280600081525060006040518060200160405280600081525060006200052760201b60201c565b50620001586040518060400160405280600781526020017f746361746f6666000000000000000000000000000000000000000000000000008152506040518060400160405280600681526020017f74697274727200000000000000000000000000000000000000000000000000008152506040518060400160405280600e81526020017f6465736372696f70707474746f6f00000000000000000000000000000000000081525060016040518060400160405280600381526020017f5553440000000000000000000000000000000000000000000000000000000000815250652222222222226200052760201b60201c565b506200024a6040518060400160405280600881526020017f7a657274797364660000000000000000000000000000000000000000000000008152506040518060400160405280601281526020017f73646667686666666666666666666666666600000000000000000000000000008152506040518060400160405280600b81526020017f647366646673647366647300000000000000000000000000000000000000000081525060706040518060400160405280600381526020017f5553440000000000000000000000000000000000000000000000000000000000815250652222222222226200052760201b60201c565b506200033c6040518060400160405280600f81526020017f61616161616161616161616161616100000000000000000000000000000000008152506040518060400160405280601081526020017f61616161626162616261626162616261000000000000000000000000000000008152506040518060400160405280600b81526020017f647366646673647366647300000000000000000000000000000000000000000081525060706040518060400160405280600381526020017f5553440000000000000000000000000000000000000000000000000000000000815250652222222222226200052760201b60201c565b506200042e6040518060400160405280600a81526020017f62626262626262626262000000000000000000000000000000000000000000008152506040518060400160405280601081526020017f63626362636263626362636263626362000000000000000000000000000000008152506040518060400160405280600b81526020017f647366646673647366647300000000000000000000000000000000000000000081525060706040518060400160405280600481526020017f4643464100000000000000000000000000000000000000000000000000000000815250652222222222226200052760201b60201c565b50620005206040518060400160405280600a81526020017f63636363636363636363000000000000000000000000000000000000000000008152506040518060400160405280601481526020017f63646364636463646364636463646364636463640000000000000000000000008152506040518060400160405280600b81526020017f647366646673647366647300000000000000000000000000000000000000000081525060706040518060400160405280600781526020017f446f6c6c61727300000000000000000000000000000000000000000000000000815250652222222222226200052760201b60201c565b5062000897565b60008060008054809190600101620005409190620006c6565b90506040518060e001604052808281526020018981526020018881526020018781526020018681526020018581526020018473ffffffffffffffffffffffffffffffffffffffff16815250600082815481106200059957fe5b9060005260206000209060070201600082015181600001556020820151816001019080519060200190620005cf929190620006fb565b506040820151816002019080519060200190620005ee929190620006fb565b5060608201518160030190805190602001906200060d929190620006fb565b506080820151816004015560a082015181600501908051906020019062000636929190620006fb565b5060c08201518160060160006101000a81548173ffffffffffffffffffffffffffffffffffffffff021916908373ffffffffffffffffffffffffffffffffffffffff1602179055509050507f34ca4dd5a0945b7ba72a4b73bfcab14b850c6117092ec4c562830a2cf7ffdda5816040518082815260200191505060405180910390a1809150509695505050505050565b815481835581811115620006f657600702816007028360005260206000209182019101620006f5919062000782565b5b505050565b828054600181600116156101000203166002900490600052602060002090601f016020900481019282601f106200073e57805160ff19168380011785556200076f565b828001600101855582156200076f579182015b828111156200076e57825182559160200191906001019062000751565b5b5090506200077e919062000823565b5090565b6200082091905b808211156200081c57600080820160009055600182016000620007ad91906200084b565b600282016000620007bf91906200084b565b600382016000620007d191906200084b565b6004820160009055600582016000620007eb91906200084b565b6006820160006101000a81549073ffffffffffffffffffffffffffffffffffffffff02191690555060070162000789565b5090565b90565b6200084891905b80821115620008445760008160009055506001016200082a565b5090565b90565b50805460018160011615610100020316600290046000825580601f1062000873575062000894565b601f01602090049060005260206000209081019062000893919062000823565b5b50565b61178980620008a76000396000f3fe608060405234801561001057600080fd5b506004361061007d5760003560e01c80634c4df8701161005b5780634c4df870146103125780634fd68eb81461035457806354a0cda8146105f2578063fbc8e0101461081e5761007d565b80631d8748971461008257806327eba385146100a0578063493f93a5146102cc575b600080fd5b61008a610ad4565b6040518082815260200191505060405180910390f35b6100cc600480360360208110156100b657600080fd5b8101908080359060200190929190505050610ae4565b60405180888152602001806020018060200180602001878152602001806020018673ffffffffffffffffffffffffffffffffffffffff1673ffffffffffffffffffffffffffffffffffffffff16815260200185810385528b818151815260200191508051906020019080838360005b8381101561015657808201518184015260208101905061013b565b50505050905090810190601f1680156101835780820380516001836020036101000a031916815260200191505b5085810384528a818151815260200191508051906020019080838360005b838110156101bc5780820151818401526020810190506101a1565b50505050905090810190601f1680156101e95780820380516001836020036101000a031916815260200191505b50858103835289818151815260200191508051906020019080838360005b83811015610222578082015181840152602081019050610207565b50505050905090810190601f16801561024f5780820380516001836020036101000a031916815260200191505b50858103825287818151815260200191508051906020019080838360005b8381101561028857808201518184015260208101905061026d565b50505050905090810190601f1680156102b55780820380516001836020036101000a031916815260200191505b509b50505050505050505050505060405180910390f35b6102f8600480360360208110156102e257600080fd5b8101908080359060200190929190505050610db3565b604051808215151515815260200191505060405180910390f35b61033e6004803603602081101561032857600080fd5b8101908080359060200190929190505050610e89565b6040518082815260200191505060405180910390f35b6105dc600480360360a081101561036a57600080fd5b810190808035906020019064010000000081111561038757600080fd5b82018360208201111561039957600080fd5b803590602001918460018302840111640100000000831117156103bb57600080fd5b91908080601f016020809104026020016040519081016040528093929190818152602001838380828437600081840152601f19601f8201169050808301925050505050505091929192908035906020019064010000000081111561041e57600080fd5b82018360208201111561043057600080fd5b8035906020019184600183028401116401000000008311171561045257600080fd5b91908080601f016020809104026020016040519081016040528093929190818152602001838380828437600081840152601f19601f820116905080830192505050505050509192919290803590602001906401000000008111156104b557600080fd5b8201836020820111156104c757600080fd5b803590602001918460018302840111640100000000831117156104e957600080fd5b91908080601f016020809104026020016040519081016040528093929190818152602001838380828437600081840152601f19601f820116905080830192505050505050509192919290803590602001909291908035906020019064010000000081111561055657600080fd5b82018360208201111561056857600080fd5b8035906020019184600183028401116401000000008311171561058a57600080fd5b91908080601f016020809104026020016040519081016040528093929190818152602001838380828437600081840152601f19601f820116905080830192505050505050509192919290505050610eb0565b6040518082815260200191505060405180910390f35b61061e6004803603602081101561060857600080fd5b8101908080359060200190929190505050610ecb565b60405180888152602001806020018060200180602001878152602001806020018673ffffffffffffffffffffffffffffffffffffffff1673ffffffffffffffffffffffffffffffffffffffff16815260200185810385528b818151815260200191508051906020019080838360005b838110156106a857808201518184015260208101905061068d565b50505050905090810190601f1680156106d55780820380516001836020036101000a031916815260200191505b5085810384528a818151815260200191508051906020019080838360005b8381101561070e5780820151818401526020810190506106f3565b50505050905090810190601f16801561073b5780820380516001836020036101000a031916815260200191505b50858103835289818151815260200191508051906020019080838360005b83811015610774578082015181840152602081019050610759565b50505050905090810190601f1680156107a15780820380516001836020036101000a031916815260200191505b50858103825287818151815260200191508051906020019080838360005b838110156107da5780820151818401526020810190506107bf565b50505050905090810190601f1680156108075780820380516001836020036101000a031916815260200191505b509b50505050505050505050505060405180910390f35b610aba600480360360e081101561083457600080fd5b8101908080359060200190929190803590602001909291908035906020019064010000000081111561086557600080fd5b82018360208201111561087757600080fd5b8035906020019184600183028401116401000000008311171561089957600080fd5b91908080601f016020809104026020016040519081016040528093929190818152602001838380828437600081840152601f19601f820116905080830192505050505050509192919290803590602001906401000000008111156108fc57600080fd5b82018360208201111561090e57600080fd5b8035906020019184600183028401116401000000008311171561093057600080fd5b91908080601f016020809104026020016040519081016040528093929190818152602001838380828437600081840152601f19601f8201169050808301925050505050505091929192908035906020019064010000000081111561099357600080fd5b8201836020820111156109a557600080fd5b803590602001918460018302840111640100000000831117156109c757600080fd5b91908080601f016020809104026020016040519081016040528093929190818152602001838380828437600081840152601f19601f8201169050808301925050505050505091929192908035906020019092919080359060200190640100000000811115610a3457600080fd5b820183602082011115610a4657600080fd5b80359060200191846001830284011164010000000083111715610a6857600080fd5b91908080601f016020809104026020016040519081016040528093929190818152602001838380828437600081840152601f19601f820116905080830192505050505050509192919290505050611243565b604051808215151515815260200191505060405180910390f35b6000600160008054905003905090565b60008181548110610af157fe5b9060005260206000209060070201600091509050806000015490806001018054600181600116156101000203166002900480601f016020809104026020016040519081016040528092919081815260200182805460018160011615610100020316600290048015610ba35780601f10610b7857610100808354040283529160200191610ba3565b820191906000526020600020905b815481529060010190602001808311610b8657829003601f168201915b505050505090806002018054600181600116156101000203166002900480601f016020809104026020016040519081016040528092919081815260200182805460018160011615610100020316600290048015610c415780601f10610c1657610100808354040283529160200191610c41565b820191906000526020600020905b815481529060010190602001808311610c2457829003601f168201915b505050505090806003018054600181600116156101000203166002900480601f016020809104026020016040519081016040528092919081815260200182805460018160011615610100020316600290048015610cdf5780601f10610cb457610100808354040283529160200191610cdf565b820191906000526020600020905b815481529060010190602001808311610cc257829003601f168201915b505050505090806004015490806005018054600181600116156101000203166002900480601f016020809104026020016040519081016040528092919081815260200182805460018160011615610100020316600290048015610d835780601f10610d5857610100808354040283529160200191610d83565b820191906000526020600020905b815481529060010190602001808311610d6657829003601f168201915b5050505050908060060160009054906101000a900473ffffffffffffffffffffffffffffffffffffffff16905087565b6000808281548110610dc157fe5b9060005260206000209060070201600080820160009055600182016000610de89190611555565b600282016000610df89190611555565b600382016000610e089190611555565b6004820160009055600582016000610e209190611555565b6006820160006101000a81549073ffffffffffffffffffffffffffffffffffffffff021916905550507ffd51b4ac3f25e3bda270bc3c9b352dab6bdf20905590c593aacc4c37bfed1205826040518082815260200191505060405180910390a160019050919050565b6000808281548110610e9757fe5b9060005260206000209060070201600401549050919050565b6000610ec08686868686336113c1565b905095945050505050565b60006060806060600060606000610ee061159d565b60008981548110610eed57fe5b90600052602060002090600702016040518060e001604052908160008201548152602001600182018054600181600116156101000203166002900480601f016020809104026020016040519081016040528092919081815260200182805460018160011615610100020316600290048015610fa95780601f10610f7e57610100808354040283529160200191610fa9565b820191906000526020600020905b815481529060010190602001808311610f8c57829003601f168201915b50505050508152602001600282018054600181600116156101000203166002900480601f01602080910402602001604051908101604052809291908181526020018280546001816001161561010002031660029004801561104b5780601f106110205761010080835404028352916020019161104b565b820191906000526020600020905b81548152906001019060200180831161102e57829003601f168201915b50505050508152602001600382018054600181600116156101000203166002900480601f0160208091040260200160405190810160405280929190818152602001828054600181600116156101000203166002900480156110ed5780601f106110c2576101008083540402835291602001916110ed565b820191906000526020600020905b8154815290600101906020018083116110d057829003601f168201915b5050505050815260200160048201548152602001600582018054600181600116156101000203166002900480601f0160208091040260200160405190810160405280929190818152602001828054600181600116156101000203166002900480156111995780601f1061116e57610100808354040283529160200191611199565b820191906000526020600020905b81548152906001019060200180831161117c57829003601f168201915b505050505081526020016006820160009054906101000a900473ffffffffffffffffffffffffffffffffffffffff1673ffffffffffffffffffffffffffffffffffffffff1673ffffffffffffffffffffffffffffffffffffffff16815250509050806000015181604001518260200151836060015184608001518560a001518660c00151859550849450839350819150975097509750975097509750975050919395979092949650565b60006040518060e001604052808881526020018781526020018681526020018581526020018481526020018381526020013373ffffffffffffffffffffffffffffffffffffffff168152506000898154811061129b57fe5b90600052602060002090600702016000820151816000015560208201518160010190805190602001906112cf9291906115f0565b5060408201518160020190805190602001906112ec9291906115f0565b5060608201518160030190805190602001906113099291906115f0565b506080820151816004015560a08201518160050190805190602001906113309291906115f0565b5060c08201518160060160006101000a81548173ffffffffffffffffffffffffffffffffffffffff021916908373ffffffffffffffffffffffffffffffffffffffff1602179055509050507f4064db3961210b7cb4bf023703a28563b6907164696dde87a9a5baf8162b9db4886040518082815260200191505060405180910390a160019050979650505050505050565b600080600080548091906001016113d89190611670565b90506040518060e001604052808281526020018981526020018881526020018781526020018681526020018581526020018473ffffffffffffffffffffffffffffffffffffffff168152506000828154811061143057fe5b90600052602060002090600702016000820151816000015560208201518160010190805190602001906114649291906115f0565b5060408201518160020190805190602001906114819291906115f0565b50606082015181600301908051906020019061149e9291906115f0565b506080820151816004015560a08201518160050190805190602001906114c59291906115f0565b5060c08201518160060160006101000a81548173ffffffffffffffffffffffffffffffffffffffff021916908373ffffffffffffffffffffffffffffffffffffffff1602179055509050507f34ca4dd5a0945b7ba72a4b73bfcab14b850c6117092ec4c562830a2cf7ffdda5816040518082815260200191505060405180910390a1809150509695505050505050565b50805460018160011615610100020316600290046000825580601f1061157b575061159a565b601f01602090049060005260206000209081019061159991906116a2565b5b50565b6040518060e00160405280600081526020016060815260200160608152602001606081526020016000815260200160608152602001600073ffffffffffffffffffffffffffffffffffffffff1681525090565b828054600181600116156101000203166002900490600052602060002090601f016020900481019282601f1061163157805160ff191683800117855561165f565b8280016001018555821561165f579182015b8281111561165e578251825591602001919060010190611643565b5b50905061166c91906116a2565b5090565b81548183558181111561169d5760070281600702836000526020600020918201910161169c91906116c7565b5b505050565b6116c491905b808211156116c05760008160009055506001016116a8565b5090565b90565b61175a91905b80821115611756576000808201600090556001820160006116ee9190611555565b6002820160006116fe9190611555565b60038201600061170e9190611555565b60048201600090556005820160006117269190611555565b6006820160006101000a81549073ffffffffffffffffffffffffffffffffffffffff0219169055506007016116cd565b5090565b9056fea165627a7a72305820fd78c01f9e6d1850524d30fb49174f69980f1b38d119f0f0f06ffe42e0ce673e0029",
  "source": "pragma solidity ^0.5.0;\ncontract Produits {\n   \n     struct unProduit {\n        uint uuid;\n        string categorie;\n        string titre;\n        string description;\n        uint256 prix;\n        string devise;\n        address user;\n    }\n    unProduit[] public listeProduits;\n    \n    //event apres enregistrement d'un produit\n    event newProduitAdd(uint id);\n    \n    //event apres modification d'un produit\n    event produitUpdated(uint id);\n    \n     //event apres suppression d'un produit\n    event supprimerProduit(uint id);\n    \n    constructor() public\n    {\n        \n        // receive 0, that's why in the first position (with index 0) must be initialized\n        addUnProduit(\"\", \"\",\"\",0,\"\",address(0x0));\n\n        // Some dummy data\n        addUnProduit(\"tcatoff\", \"tirtrr\", \"descriopptttoo\",1,\"USD\",address(0x222222222222));\n        addUnProduit(\"zertysdf\", \"sdfghfffffffffffff\", \"dsfdfsdsfds\",112,\"USD\",address(0x222222222222));\n        addUnProduit(\"aaaaaaaaaaaaaaa\", \"aaaababababababa\", \"dsfdfsdsfds\",112,\"USD\",address(0x222222222222));\n        addUnProduit(\"bbbbbbbbbb\", \"cbcbcbcbcbcbcbcb\", \"dsfdfsdsfds\",112,\"FCFA\",address(0x222222222222));\n        addUnProduit(\"cccccccccc\", \"cdcdcdcdcdcdcdcdcdcd\", \"dsfdfsdsfds\",112,\"Dollars\",address(0x222222222222));\n        \n    }\n    \n    function registerProduit(string memory  _newCategorie,string memory _newTitre, string memory _newDescription,uint256 _newPrix,string memory _newDevise) public\n    returns(uint)\n    {\n    \treturn addUnProduit(_newCategorie, _newTitre, _newDescription,_newPrix,_newDevise,msg.sender);\n    }\n\n    function getProduitById(uint _id) public view returns (\n        uint,\n        string memory,\n        string memory,\n        string memory,\n        uint,\n        string memory,\n        address\n    ){\n\n        unProduit memory p = listeProduits[_id];\n        return (p.uuid, p.titre,p.categorie, p.description, p.prix, p.devise,p.user);\n    }\n\n    //This is simply more for convenience than not\n    function getItemPrice(uint id) public view returns (uint256) {\n        return listeProduits[id].prix;\n    }\n\n    function addUnProduit (\n        string memory  _newCategorie,\n        string memory _newTitre,\n        string memory _newDescription,\n        uint256 _newPrix,\n        string memory _newDevise,\n        address _wAddresse\n    )  private  returns (uint) {\n\n        uint newid=listeProduits.length++;\n        //Add to listeProduits\n        listeProduits[newid] = unProduit({\n            uuid:newid,\n            categorie:_newCategorie, \n            titre:_newTitre, \n            description:_newDescription,\n            prix:_newPrix, \n            devise:_newDevise,\n            user:_wAddresse\n        });\n        emit newProduitAdd(newid);\n       \n        return newid;\n    }\n\n\n    function updateUnProduit (\n        uint id,\n        uint _uuid,\n        string memory  _categorie,\n        string memory _titre,\n        string memory _description,\n        uint256 _prix,\n        string memory _devise\n    ) public returns (bool) {\n\n        listeProduits[id] = unProduit({\n            uuid:_uuid,\n            categorie:_categorie, \n            titre:_titre, \n            description:_description,\n            prix:_prix, \n            devise:_devise,\n            user:msg.sender});\n            emit produitUpdated(id);\n        return true;\n    }\n\n\n    function deleteUnproduit(uint id) public returns (bool) {\n        //require((id>0) || (id<=listeProduits.length));\n        //Delete produit identified by ID\n        delete listeProduits[id];\n        emit supprimerProduit(id);\n        return true;\n    }\n\n    /**\n     * Return the number of total registered users.\n     */\n    function totalProduits() public view returns (uint)\n    {\n        // NOTE: the total registered user is length-1 because the user with\n        // index 0 is empty check the contructor: addUser(address(0x0), \"\", \"\");\n        return listeProduits.length - 1;\n    }\n    \n\n}\n",
  "sourcePath": "/home/dissirama/projetblockchain/couponschain/contracts/Produits.sol",
  "compiler": {
    "name": "solc",
    "version": "0.5.8+commit.23d335f2.Emscripten.clang"
  },
  "schemaVersion": "3.0.11",
  "updatedAt": "2019-09-09T10:08:54.974Z",
  "devdoc": {
    "methods": {}
  },
  "userdoc": {
    "methods": {
      "totalProduits()": {
        "notice": "Return the number of total registered users."
      }
    }
  }
}