{
  "contractName": "Users",
  "abi": [
    {
      "constant": true,
      "inputs": [
        {
          "name": "",
          "type": "uint256"
        }
      ],
      "name": "isProprietraireCoupon",
      "outputs": [
        {
          "name": "",
          "type": "address"
        }
      ],
      "payable": false,
      "stateMutability": "view",
      "type": "function"
    },
    {
      "constant": true,
      "inputs": [
        {
          "name": "",
          "type": "address"
        }
      ],
      "name": "isConsommateur",
      "outputs": [
        {
          "name": "",
          "type": "bool"
        }
      ],
      "payable": false,
      "stateMutability": "view",
      "type": "function"
    },
    {
      "constant": true,
      "inputs": [
        {
          "name": "",
          "type": "uint256"
        }
      ],
      "name": "users",
      "outputs": [
        {
          "name": "name",
          "type": "string"
        },
        {
          "name": "status",
          "type": "bytes32"
        },
        {
          "name": "walletAddress",
          "type": "address"
        },
        {
          "name": "createdAt",
          "type": "uint256"
        },
        {
          "name": "updatedAt",
          "type": "uint256"
        }
      ],
      "payable": false,
      "stateMutability": "view",
      "type": "function"
    },
    {
      "constant": true,
      "inputs": [
        {
          "name": "",
          "type": "address"
        }
      ],
      "name": "isDistributeur",
      "outputs": [
        {
          "name": "",
          "type": "bool"
        }
      ],
      "payable": false,
      "stateMutability": "view",
      "type": "function"
    },
    {
      "constant": true,
      "inputs": [
        {
          "name": "",
          "type": "uint256"
        }
      ],
      "name": "campagneGenerer",
      "outputs": [
        {
          "name": "",
          "type": "bool"
        }
      ],
      "payable": false,
      "stateMutability": "view",
      "type": "function"
    },
    {
      "constant": true,
      "inputs": [
        {
          "name": "",
          "type": "uint256"
        }
      ],
      "name": "lesCampagnes",
      "outputs": [
        {
          "name": "name",
          "type": "string"
        },
        {
          "name": "campagneEmetteur",
          "type": "address"
        },
        {
          "name": "nombre",
          "type": "uint256"
        },
        {
          "name": "datedebutAt",
          "type": "uint256"
        },
        {
          "name": "datefinAt",
          "type": "uint256"
        },
        {
          "name": "etatCampagne",
          "type": "string"
        }
      ],
      "payable": false,
      "stateMutability": "view",
      "type": "function"
    },
    {
      "constant": true,
      "inputs": [
        {
          "name": "",
          "type": "uint256"
        }
      ],
      "name": "distributeurs",
      "outputs": [
        {
          "name": "name",
          "type": "string"
        },
        {
          "name": "status",
          "type": "bytes32"
        },
        {
          "name": "walletAddress",
          "type": "address"
        },
        {
          "name": "createdAt",
          "type": "uint256"
        },
        {
          "name": "updatedAt",
          "type": "uint256"
        }
      ],
      "payable": false,
      "stateMutability": "view",
      "type": "function"
    },
    {
      "constant": true,
      "inputs": [
        {
          "name": "",
          "type": "uint256"
        }
      ],
      "name": "emetteurs",
      "outputs": [
        {
          "name": "name",
          "type": "string"
        },
        {
          "name": "status",
          "type": "bytes32"
        },
        {
          "name": "walletAddress",
          "type": "address"
        },
        {
          "name": "createdAt",
          "type": "uint256"
        },
        {
          "name": "updatedAt",
          "type": "uint256"
        }
      ],
      "payable": false,
      "stateMutability": "view",
      "type": "function"
    },
    {
      "constant": true,
      "inputs": [
        {
          "name": "",
          "type": "address"
        }
      ],
      "name": "usersIds",
      "outputs": [
        {
          "name": "",
          "type": "uint256"
        }
      ],
      "payable": false,
      "stateMutability": "view",
      "type": "function"
    },
    {
      "constant": true,
      "inputs": [
        {
          "name": "",
          "type": "uint256"
        }
      ],
      "name": "isEmetteurCoupon",
      "outputs": [
        {
          "name": "",
          "type": "address"
        }
      ],
      "payable": false,
      "stateMutability": "view",
      "type": "function"
    },
    {
      "constant": true,
      "inputs": [
        {
          "name": "",
          "type": "uint256"
        }
      ],
      "name": "isEmetteurCampagne",
      "outputs": [
        {
          "name": "",
          "type": "address"
        }
      ],
      "payable": false,
      "stateMutability": "view",
      "type": "function"
    },
    {
      "constant": true,
      "inputs": [
        {
          "name": "",
          "type": "uint256"
        }
      ],
      "name": "lesCoupons",
      "outputs": [
        {
          "name": "idCampagne",
          "type": "uint256"
        },
        {
          "name": "couponEmetteur",
          "type": "address"
        },
        {
          "name": "proprietaire",
          "type": "address"
        },
        {
          "name": "valeur",
          "type": "uint256"
        },
        {
          "name": "titre",
          "type": "string"
        },
        {
          "name": "datedebutAt",
          "type": "uint256"
        },
        {
          "name": "datefinAt",
          "type": "uint256"
        },
        {
          "name": "etatCoupon",
          "type": "string"
        }
      ],
      "payable": false,
      "stateMutability": "view",
      "type": "function"
    },
    {
      "constant": true,
      "inputs": [
        {
          "name": "",
          "type": "uint256"
        }
      ],
      "name": "consommateurs",
      "outputs": [
        {
          "name": "name",
          "type": "string"
        },
        {
          "name": "status",
          "type": "bytes32"
        },
        {
          "name": "walletAddress",
          "type": "address"
        },
        {
          "name": "createdAt",
          "type": "uint256"
        },
        {
          "name": "updatedAt",
          "type": "uint256"
        }
      ],
      "payable": false,
      "stateMutability": "view",
      "type": "function"
    },
    {
      "constant": true,
      "inputs": [
        {
          "name": "",
          "type": "address"
        }
      ],
      "name": "isEmetteurs",
      "outputs": [
        {
          "name": "",
          "type": "bool"
        }
      ],
      "payable": false,
      "stateMutability": "view",
      "type": "function"
    },
    {
      "inputs": [],
      "payable": false,
      "stateMutability": "nonpayable",
      "type": "constructor"
    },
    {
      "anonymous": false,
      "inputs": [
        {
          "indexed": false,
          "name": "id",
          "type": "uint256"
        }
      ],
      "name": "newUserRegistered",
      "type": "event"
    },
    {
      "anonymous": false,
      "inputs": [
        {
          "indexed": false,
          "name": "id",
          "type": "uint256"
        }
      ],
      "name": "userUpdateEvent",
      "type": "event"
    },
    {
      "anonymous": false,
      "inputs": [
        {
          "indexed": false,
          "name": "id",
          "type": "uint256"
        },
        {
          "indexed": false,
          "name": "val",
          "type": "uint256"
        }
      ],
      "name": "newCouponRegistered",
      "type": "event"
    },
    {
      "anonymous": false,
      "inputs": [
        {
          "indexed": false,
          "name": "id",
          "type": "uint256"
        },
        {
          "indexed": false,
          "name": "nbre",
          "type": "uint256"
        }
      ],
      "name": "newCampagneRegistered",
      "type": "event"
    },
    {
      "constant": false,
      "inputs": [
        {
          "name": "_campagneId",
          "type": "uint256"
        },
        {
          "name": "_couponValeur",
          "type": "uint256"
        }
      ],
      "name": "registerCoupon",
      "outputs": [
        {
          "name": "",
          "type": "uint256"
        }
      ],
      "payable": false,
      "stateMutability": "nonpayable",
      "type": "function"
    },
    {
      "constant": false,
      "inputs": [
        {
          "name": "_campagneId",
          "type": "uint256"
        },
        {
          "name": "_couponValeur",
          "type": "uint256"
        },
        {
          "name": "_nombreCoupon",
          "type": "uint256"
        }
      ],
      "name": "genererCoupon",
      "outputs": [
        {
          "name": "",
          "type": "bool"
        }
      ],
      "payable": false,
      "stateMutability": "nonpayable",
      "type": "function"
    },
    {
      "constant": true,
      "inputs": [
        {
          "name": "_id",
          "type": "uint256"
        }
      ],
      "name": "getCouponById",
      "outputs": [
        {
          "name": "",
          "type": "uint256"
        },
        {
          "name": "",
          "type": "uint256"
        },
        {
          "name": "",
          "type": "string"
        },
        {
          "name": "",
          "type": "uint256"
        },
        {
          "name": "",
          "type": "address"
        },
        {
          "name": "",
          "type": "address"
        },
        {
          "name": "",
          "type": "uint256"
        },
        {
          "name": "",
          "type": "uint256"
        },
        {
          "name": "",
          "type": "string"
        }
      ],
      "payable": false,
      "stateMutability": "view",
      "type": "function"
    },
    {
      "constant": true,
      "inputs": [
        {
          "name": "_id",
          "type": "uint256"
        }
      ],
      "name": "getEmetteurCouponById",
      "outputs": [
        {
          "name": "",
          "type": "uint256"
        },
        {
          "name": "",
          "type": "uint256"
        },
        {
          "name": "",
          "type": "string"
        },
        {
          "name": "",
          "type": "uint256"
        },
        {
          "name": "",
          "type": "address"
        },
        {
          "name": "",
          "type": "address"
        },
        {
          "name": "",
          "type": "uint256"
        },
        {
          "name": "",
          "type": "uint256"
        },
        {
          "name": "",
          "type": "string"
        }
      ],
      "payable": false,
      "stateMutability": "view",
      "type": "function"
    },
    {
      "constant": true,
      "inputs": [
        {
          "name": "_id",
          "type": "uint256"
        }
      ],
      "name": "getProprietaireCouponById",
      "outputs": [
        {
          "name": "",
          "type": "uint256"
        },
        {
          "name": "",
          "type": "uint256"
        },
        {
          "name": "",
          "type": "string"
        },
        {
          "name": "",
          "type": "uint256"
        },
        {
          "name": "",
          "type": "address"
        },
        {
          "name": "",
          "type": "address"
        },
        {
          "name": "",
          "type": "uint256"
        },
        {
          "name": "",
          "type": "uint256"
        },
        {
          "name": "",
          "type": "string"
        }
      ],
      "payable": false,
      "stateMutability": "view",
      "type": "function"
    },
    {
      "constant": false,
      "inputs": [
        {
          "name": "_campagneName",
          "type": "string"
        },
        {
          "name": "_campagneValeur",
          "type": "uint256"
        }
      ],
      "name": "registerCampagne",
      "outputs": [
        {
          "name": "",
          "type": "uint256"
        }
      ],
      "payable": false,
      "stateMutability": "nonpayable",
      "type": "function"
    },
    {
      "constant": true,
      "inputs": [
        {
          "name": "_id",
          "type": "uint256"
        }
      ],
      "name": "getCampagneById",
      "outputs": [
        {
          "name": "",
          "type": "uint256"
        },
        {
          "name": "",
          "type": "string"
        },
        {
          "name": "",
          "type": "address"
        },
        {
          "name": "",
          "type": "uint256"
        },
        {
          "name": "",
          "type": "uint256"
        },
        {
          "name": "",
          "type": "uint256"
        },
        {
          "name": "",
          "type": "string"
        }
      ],
      "payable": false,
      "stateMutability": "view",
      "type": "function"
    },
    {
      "constant": true,
      "inputs": [
        {
          "name": "_id",
          "type": "uint256"
        }
      ],
      "name": "getEmetteurCampagneById",
      "outputs": [
        {
          "name": "",
          "type": "uint256"
        },
        {
          "name": "",
          "type": "string"
        },
        {
          "name": "",
          "type": "address"
        },
        {
          "name": "",
          "type": "uint256"
        },
        {
          "name": "",
          "type": "uint256"
        },
        {
          "name": "",
          "type": "uint256"
        },
        {
          "name": "",
          "type": "string"
        }
      ],
      "payable": false,
      "stateMutability": "view",
      "type": "function"
    },
    {
      "constant": true,
      "inputs": [
        {
          "name": "_id",
          "type": "uint256"
        }
      ],
      "name": "getEmetteurCampagneGenererById",
      "outputs": [
        {
          "name": "",
          "type": "uint256"
        },
        {
          "name": "",
          "type": "string"
        },
        {
          "name": "",
          "type": "address"
        },
        {
          "name": "",
          "type": "uint256"
        },
        {
          "name": "",
          "type": "uint256"
        },
        {
          "name": "",
          "type": "uint256"
        },
        {
          "name": "",
          "type": "string"
        }
      ],
      "payable": false,
      "stateMutability": "view",
      "type": "function"
    },
    {
      "constant": true,
      "inputs": [
        {
          "name": "_id",
          "type": "uint256"
        }
      ],
      "name": "getEmetteurNonCampagneGenererById",
      "outputs": [
        {
          "name": "",
          "type": "uint256"
        },
        {
          "name": "",
          "type": "string"
        },
        {
          "name": "",
          "type": "address"
        },
        {
          "name": "",
          "type": "uint256"
        },
        {
          "name": "",
          "type": "uint256"
        },
        {
          "name": "",
          "type": "uint256"
        },
        {
          "name": "",
          "type": "string"
        }
      ],
      "payable": false,
      "stateMutability": "view",
      "type": "function"
    },
    {
      "constant": true,
      "inputs": [],
      "name": "totalCampagnes",
      "outputs": [
        {
          "name": "",
          "type": "uint256"
        }
      ],
      "payable": false,
      "stateMutability": "view",
      "type": "function"
    },
    {
      "constant": true,
      "inputs": [],
      "name": "totalCoupons",
      "outputs": [
        {
          "name": "",
          "type": "uint256"
        }
      ],
      "payable": false,
      "stateMutability": "view",
      "type": "function"
    },
    {
      "constant": false,
      "inputs": [
        {
          "name": "idCoup",
          "type": "uint256"
        },
        {
          "name": "receiver",
          "type": "address"
        }
      ],
      "name": "changeOwnerTo",
      "outputs": [],
      "payable": false,
      "stateMutability": "nonpayable",
      "type": "function"
    },
    {
      "constant": false,
      "inputs": [
        {
          "name": "idcoup",
          "type": "uint256"
        }
      ],
      "name": "redeem",
      "outputs": [],
      "payable": false,
      "stateMutability": "nonpayable",
      "type": "function"
    },
    {
      "constant": false,
      "inputs": [
        {
          "name": "idcoup",
          "type": "uint256"
        },
        {
          "name": "receiver",
          "type": "address"
        }
      ],
      "name": "transfer",
      "outputs": [],
      "payable": false,
      "stateMutability": "nonpayable",
      "type": "function"
    },
    {
      "constant": false,
      "inputs": [
        {
          "name": "_userName",
          "type": "string"
        },
        {
          "name": "_status",
          "type": "bytes32"
        }
      ],
      "name": "registerUser",
      "outputs": [
        {
          "name": "",
          "type": "uint256"
        }
      ],
      "payable": false,
      "stateMutability": "nonpayable",
      "type": "function"
    },
    {
      "constant": false,
      "inputs": [
        {
          "name": "_newUserName",
          "type": "string"
        },
        {
          "name": "_newStatus",
          "type": "bytes32"
        }
      ],
      "name": "updateUser",
      "outputs": [
        {
          "name": "",
          "type": "uint256"
        }
      ],
      "payable": false,
      "stateMutability": "nonpayable",
      "type": "function"
    },
    {
      "constant": true,
      "inputs": [
        {
          "name": "_id",
          "type": "uint256"
        }
      ],
      "name": "getUserById",
      "outputs": [
        {
          "name": "",
          "type": "uint256"
        },
        {
          "name": "",
          "type": "string"
        },
        {
          "name": "",
          "type": "bytes32"
        },
        {
          "name": "",
          "type": "address"
        },
        {
          "name": "",
          "type": "uint256"
        },
        {
          "name": "",
          "type": "uint256"
        }
      ],
      "payable": false,
      "stateMutability": "view",
      "type": "function"
    },
    {
      "constant": true,
      "inputs": [],
      "name": "getOwnProfile",
      "outputs": [
        {
          "name": "",
          "type": "uint256"
        },
        {
          "name": "",
          "type": "string"
        },
        {
          "name": "",
          "type": "bytes32"
        },
        {
          "name": "",
          "type": "address"
        },
        {
          "name": "",
          "type": "uint256"
        },
        {
          "name": "",
          "type": "uint256"
        }
      ],
      "payable": false,
      "stateMutability": "view",
      "type": "function"
    },
    {
      "constant": true,
      "inputs": [],
      "name": "isRegistered",
      "outputs": [
        {
          "name": "",
          "type": "bool"
        }
      ],
      "payable": false,
      "stateMutability": "view",
      "type": "function"
    },
    {
      "constant": true,
      "inputs": [],
      "name": "totalUsers",
      "outputs": [
        {
          "name": "",
          "type": "uint256"
        }
      ],
      "payable": false,
      "stateMutability": "view",
      "type": "function"
    },
    {
      "constant": true,
      "inputs": [],
      "name": "CheckIsEmetteur",
      "outputs": [
        {
          "name": "",
          "type": "bool"
        }
      ],
      "payable": false,
      "stateMutability": "view",
      "type": "function"
    },
    {
      "constant": true,
      "inputs": [],
      "name": "CheckIsDistributeur",
      "outputs": [
        {
          "name": "",
          "type": "bool"
        }
      ],
      "payable": false,
      "stateMutability": "view",
      "type": "function"
    },
    {
      "constant": true,
      "inputs": [],
      "name": "CheckIsConsommateur",
      "outputs": [
        {
          "name": "",
          "type": "bool"
        }
      ],
      "payable": false,
      "stateMutability": "view",
      "type": "function"
    },
    {
      "constant": true,
      "inputs": [
        {
          "name": "id",
          "type": "uint256"
        }
      ],
      "name": "CheckIsEmetteurCampagne",
      "outputs": [
        {
          "name": "",
          "type": "bool"
        }
      ],
      "payable": false,
      "stateMutability": "view",
      "type": "function"
    },
    {
      "constant": true,
      "inputs": [
        {
          "name": "id",
          "type": "uint256"
        }
      ],
      "name": "CheckIsEmetteurCoupon",
      "outputs": [
        {
          "name": "",
          "type": "bool"
        }
      ],
      "payable": false,
      "stateMutability": "view",
      "type": "function"
    },
    {
      "constant": true,
      "inputs": [
        {
          "name": "id",
          "type": "uint256"
        }
      ],
      "name": "CheckIsProprietaireCoupon",
      "outputs": [
        {
          "name": "",
          "type": "bool"
        }
      ],
      "payable": false,
      "stateMutability": "view",
      "type": "function"
    },
    {
      "constant": true,
      "inputs": [
        {
          "name": "id",
          "type": "uint256"
        }
      ],
      "name": "CheckCampagneGenerer",
      "outputs": [
        {
          "name": "",
          "type": "bool"
        }
      ],
      "payable": false,
      "stateMutability": "view",
      "type": "function"
    }
  ],
  "bytecode": "0x60806040523480156200001157600080fd5b506200003660006040518060200160405280600081525060006200018d60201b60201c565b50620000a666333332133333336040518060400160405280600981526020017f4c656f2042726f776e00000000000000000000000000000000000000000000008152507f44697374726962757465757200000000000000000000000000000000000000006200018d60201b60201c565b506200011666111211111111116040518060400160405280600881526020017f4a6f686e20446f650000000000000000000000000000000000000000000000008152507f456d6574746575720000000000000000000000000000000000000000000000006200018d60201b60201c565b506200018666222222232222226040518060400160405280600a81526020017f4d61727920536d697468000000000000000000000000000000000000000000008152507f44697374726962757465757200000000000000000000000000000000000000006200018d60201b60201c565b5062000bf7565b6000806000808673ffffffffffffffffffffffffffffffffffffffff1673ffffffffffffffffffffffffffffffffffffffff16815260200190815260200160002054905060008114620001df57600080fd5b6001805490506000808773ffffffffffffffffffffffffffffffffffffffff1673ffffffffffffffffffffffffffffffffffffffff168152602001908152602001600020819055506000600180548091906001016200023f919062000a54565b90506040518060a001604052808681526020018581526020018773ffffffffffffffffffffffffffffffffffffffff16815260200142815260200142815250600182815481106200028c57fe5b90600052602060002090600502016000820151816000019080519060200190620002b892919062000a89565b506020820151816001015560408201518160020160006101000a81548173ffffffffffffffffffffffffffffffffffffffff021916908373ffffffffffffffffffffffffffffffffffffffff1602179055506060820151816003015560808201518160040155905050620003676040518060400160405280600881526020017f456d65747465757200000000000000000000000000000000000000000000000081525062000a2760201b60201c565b604051602001808281526020019150506040516020818303038152906040528051906020012084604051602001808281526020019150506040516020818303038152906040528051906020012014156200056257600760008773ffffffffffffffffffffffffffffffffffffffff1673ffffffffffffffffffffffffffffffffffffffff16815260200190815260200160002060009054906101000a900460ff16620005615760006002805480919060010162000425919062000a54565b90506001600760008973ffffffffffffffffffffffffffffffffffffffff1673ffffffffffffffffffffffffffffffffffffffff16815260200190815260200160002060006101000a81548160ff0219169083151502179055506040518060a001604052808781526020018681526020018873ffffffffffffffffffffffffffffffffffffffff1681526020014281526020014281525060028281548110620004ca57fe5b90600052602060002090600502016000820151816000019080519060200190620004f692919062000a89565b506020820151816001015560408201518160020160006101000a81548173ffffffffffffffffffffffffffffffffffffffff021916908373ffffffffffffffffffffffffffffffffffffffff1602179055506060820151816003015560808201518160040155905050505b5b620005a86040518060400160405280600c81526020017f446973747269627574657572000000000000000000000000000000000000000081525062000a2760201b60201c565b60405160200180828152602001915050604051602081830303815290604052805190602001208460405160200180828152602001915050604051602081830303815290604052805190602001201415620007a357600760008773ffffffffffffffffffffffffffffffffffffffff1673ffffffffffffffffffffffffffffffffffffffff16815260200190815260200160002060009054906101000a900460ff16620007a25760006003805480919060010162000666919062000a54565b90506001600860008973ffffffffffffffffffffffffffffffffffffffff1673ffffffffffffffffffffffffffffffffffffffff16815260200190815260200160002060006101000a81548160ff0219169083151502179055506040518060a001604052808781526020018681526020018873ffffffffffffffffffffffffffffffffffffffff16815260200142815260200142815250600382815481106200070b57fe5b906000526020600020906005020160008201518160000190805190602001906200073792919062000a89565b506020820151816001015560408201518160020160006101000a81548173ffffffffffffffffffffffffffffffffffffffff021916908373ffffffffffffffffffffffffffffffffffffffff1602179055506060820151816003015560808201518160040155905050505b5b620007e96040518060400160405280600c81526020017f436f6e736f6d6d6174657572000000000000000000000000000000000000000081525062000a2760201b60201c565b60405160200180828152602001915050604051602081830303815290604052805190602001208460405160200180828152602001915050604051602081830303815290604052805190602001201415620009e457600760008773ffffffffffffffffffffffffffffffffffffffff1673ffffffffffffffffffffffffffffffffffffffff16815260200190815260200160002060009054906101000a900460ff16620009e357600060048054809190600101620008a7919062000a54565b90506001600960008973ffffffffffffffffffffffffffffffffffffffff1673ffffffffffffffffffffffffffffffffffffffff16815260200190815260200160002060006101000a81548160ff0219169083151502179055506040518060a001604052808781526020018681526020018873ffffffffffffffffffffffffffffffffffffffff16815260200142815260200142815250600482815481106200094c57fe5b906000526020600020906005020160008201518160000190805190602001906200097892919062000a89565b506020820151816001015560408201518160020160006101000a81548173ffffffffffffffffffffffffffffffffffffffff021916908373ffffffffffffffffffffffffffffffffffffffff1602179055506060820151816003015560808201518160040155905050505b5b7f2456c02735fb44894660d2af194ca5261385d8ee03675e1d75b0da1300a764cd816040518082815260200191505060405180910390a180925050509392505050565b6000606082905060008151141562000a46576000801b91505062000a4f565b60208301519150505b919050565b81548183558181111562000a845760050281600502836000526020600020918201910162000a83919062000b10565b5b505050565b828054600181600116156101000203166002900490600052602060002090601f016020900481019282601f1062000acc57805160ff191683800117855562000afd565b8280016001018555821562000afd579182015b8281111562000afc57825182559160200191906001019062000adf565b5b50905062000b0c919062000b83565b5090565b62000b8091905b8082111562000b7c576000808201600062000b33919062000bab565b60018201600090556002820160006101000a81549073ffffffffffffffffffffffffffffffffffffffff0219169055600382016000905560048201600090555060050162000b17565b5090565b90565b62000ba891905b8082111562000ba457600081600090555060010162000b8a565b5090565b90565b50805460018160011615610100020316600290046000825580601f1062000bd3575062000bf4565b601f01602090049060005260206000209081019062000bf3919062000b83565b5b50565b614bea8062000c076000396000f3fe608060405234801561001057600080fd5b506004361061025e5760003560e01c80638f39471511610146578063bdb6574e116100c3578063db006a7511610087578063db006a75146119d6578063de0efb8314611a04578063e67a9c2f14611a72578063ed86cac114611c07578063f12fedfe14611cf6578063fd1b515814611d525761025e565b8063bdb6574e14611604578063bf095456146117a0578063bff1f9e1146117fa578063c266bd9514611818578063c2dba6be146119b45761025e565b8063aa3107a91161010a578063aa3107a9146113bb578063b2ee4731146114aa578063b7760c8f146114f0578063b8e21a5b1461153e578063bca3bdf5146115965761025e565b80638f39471514611195578063991fa5521461126e5780639a649edc1461128c5780639c5f5f4d146112aa578063a7174fd3146112cc5761025e565b8063365b98b2116101df5780634d9cfb76116101a35780634d9cfb7614610c7d57806352be034b14610dd8578063670e6e9514610e1e57806368ae556314610f805780636ed6da9e146110595780638609f3b11461114f5761025e565b8063365b98b2146108b157806337bff4d1146109a05780633de8803e146109fc5780634ca5b21e14610a425780634d0682eb14610b1b5761025e565b806311000c211161022657806311000c211461062f57806322366844146107cb5780632bfa305a146107ed5780632f333b101461083357806335c04a2b146108555761025e565b8063024b7e4b146102635780630684f298146102d1578063082f5fe21461031f5780630afbef19146104815780630c89eafa146104cd575b600080fd5b61028f6004803603602081101561027957600080fd5b8101908080359060200190929190505050611e24565b604051808273ffffffffffffffffffffffffffffffffffffffff1673ffffffffffffffffffffffffffffffffffffffff16815260200191505060405180910390f35b61031d600480360360408110156102e757600080fd5b8101908080359060200190929190803573ffffffffffffffffffffffffffffffffffffffff169060200190929190505050611e57565b005b61034b6004803603602081101561033557600080fd5b8101908080359060200190929190505050611f5e565b60405180888152602001806020018773ffffffffffffffffffffffffffffffffffffffff1673ffffffffffffffffffffffffffffffffffffffff16815260200186815260200185815260200184815260200180602001838103835289818151815260200191508051906020019080838360005b838110156103d95780820151818401526020810190506103be565b50505050905090810190601f1680156104065780820380516001836020036101000a031916815260200191505b50838103825284818151815260200191508051906020019080838360005b8381101561043f578082015181840152602081019050610424565b50505050905090810190601f16801561046c5780820380516001836020036101000a031916815260200191505b50995050505050505050505060405180910390f35b6104b76004803603604081101561049757600080fd5b810190808035906020019092919080359060200190929190505050611f9e565b6040518082815260200191505060405180910390f35b6104f9600480360360208110156104e357600080fd5b8101908080359060200190929190505050611fb3565b60405180888152602001806020018773ffffffffffffffffffffffffffffffffffffffff1673ffffffffffffffffffffffffffffffffffffffff16815260200186815260200185815260200184815260200180602001838103835289818151815260200191508051906020019080838360005b8381101561058757808201518184015260208101905061056c565b50505050905090810190601f1680156105b45780820380516001836020036101000a031916815260200191505b50838103825284818151815260200191508051906020019080838360005b838110156105ed5780820151818401526020810190506105d2565b50505050905090810190601f16801561061a5780820380516001836020036101000a031916815260200191505b50995050505050505050505060405180910390f35b61065b6004803603602081101561064557600080fd5b81019080803590602001909291905050506121e6565b604051808a8152602001898152602001806020018881526020018773ffffffffffffffffffffffffffffffffffffffff1673ffffffffffffffffffffffffffffffffffffffff1681526020018673ffffffffffffffffffffffffffffffffffffffff1673ffffffffffffffffffffffffffffffffffffffff1681526020018581526020018481526020018060200183810383528a818151815260200191508051906020019080838360005b83811015610721578082015181840152602081019050610706565b50505050905090810190601f16801561074e5780820380516001836020036101000a031916815260200191505b50838103825284818151815260200191508051906020019080838360005b8381101561078757808201518184015260208101905061076c565b50505050905090810190601f1680156107b45780820380516001836020036101000a031916815260200191505b509b50505050505050505050505060405180910390f35b6107d361248d565b604051808215151515815260200191505060405180910390f35b6108196004803603602081101561080357600080fd5b81019080803590602001909291905050506124d5565b604051808215151515815260200191505060405180910390f35b61083b612540565b604051808215151515815260200191505060405180910390f35b6108976004803603602081101561086b57600080fd5b81019080803573ffffffffffffffffffffffffffffffffffffffff169060200190929190505050612594565b604051808215151515815260200191505060405180910390f35b6108dd600480360360208110156108c757600080fd5b81019080803590602001909291905050506125b4565b60405180806020018681526020018573ffffffffffffffffffffffffffffffffffffffff1673ffffffffffffffffffffffffffffffffffffffff168152602001848152602001838152602001828103825287818151815260200191508051906020019080838360005b83811015610961578082015181840152602081019050610946565b50505050905090810190601f16801561098e5780820380516001836020036101000a031916815260200191505b50965050505050505060405180910390f35b6109e2600480360360208110156109b657600080fd5b81019080803573ffffffffffffffffffffffffffffffffffffffff1690602001909291905050506126af565b604051808215151515815260200191505060405180910390f35b610a2860048036036020811015610a1257600080fd5b81019080803590602001909291905050506126cf565b604051808215151515815260200191505060405180910390f35b610b0560048036036040811015610a5857600080fd5b8101908080359060200190640100000000811115610a7557600080fd5b820183602082011115610a8757600080fd5b80359060200191846001830284011164010000000083111715610aa957600080fd5b91908080601f016020809104026020016040519081016040528093929190818152602001838380828437600081840152601f19601f820116905080830192505050505050509192919290803590602001909291905050506126ef565b6040518082815260200191505060405180910390f35b610b4760048036036020811015610b3157600080fd5b8101908080359060200190929190505050612704565b60405180888152602001806020018773ffffffffffffffffffffffffffffffffffffffff1673ffffffffffffffffffffffffffffffffffffffff16815260200186815260200185815260200184815260200180602001838103835289818151815260200191508051906020019080838360005b83811015610bd5578082015181840152602081019050610bba565b50505050905090810190601f168015610c025780820380516001836020036101000a031916815260200191505b50838103825284818151815260200191508051906020019080838360005b83811015610c3b578082015181840152602081019050610c20565b50505050905090810190601f168015610c685780820380516001836020036101000a031916815260200191505b50995050505050505050505060405180910390f35b610ca960048036036020811015610c9357600080fd5b8101908080359060200190929190505050612756565b60405180806020018773ffffffffffffffffffffffffffffffffffffffff1673ffffffffffffffffffffffffffffffffffffffff16815260200186815260200185815260200184815260200180602001838103835289818151815260200191508051906020019080838360005b83811015610d31578082015181840152602081019050610d16565b50505050905090810190601f168015610d5e5780820380516001836020036101000a031916815260200191505b50838103825284818151815260200191508051906020019080838360005b83811015610d97578082015181840152602081019050610d7c565b50505050905090810190601f168015610dc45780820380516001836020036101000a031916815260200191505b509850505050505050505060405180910390f35b610e0460048036036020811015610dee57600080fd5b81019080803590602001909291905050506128ef565b604051808215151515815260200191505060405180910390f35b610e4a60048036036020811015610e3457600080fd5b810190808035906020019092919050505061295a565b60405180888152602001806020018773ffffffffffffffffffffffffffffffffffffffff1673ffffffffffffffffffffffffffffffffffffffff16815260200186815260200185815260200184815260200180602001838103835289818151815260200191508051906020019080838360005b83811015610ed8578082015181840152602081019050610ebd565b50505050905090810190601f168015610f055780820380516001836020036101000a031916815260200191505b50838103825284818151815260200191508051906020019080838360005b83811015610f3e578082015181840152602081019050610f23565b50505050905090810190601f168015610f6b5780820380516001836020036101000a031916815260200191505b50995050505050505050505060405180910390f35b61104360048036036040811015610f9657600080fd5b8101908080359060200190640100000000811115610fb357600080fd5b820183602082011115610fc557600080fd5b80359060200191846001830284011164010000000083111715610fe757600080fd5b91908080601f016020809104026020016040519081016040528093929190818152602001838380828437600081840152601f19601f820116905080830192505050505050509192919290803590602001909291905050506129ad565b6040518082815260200191505060405180910390f35b6110856004803603602081101561106f57600080fd5b81019080803590602001909291905050506129c2565b60405180878152602001806020018681526020018573ffffffffffffffffffffffffffffffffffffffff1673ffffffffffffffffffffffffffffffffffffffff168152602001848152602001838152602001828103825287818151815260200191508051906020019080838360005b8381101561110f5780820151818401526020810190506110f4565b50505050905090810190601f16801561113c5780820380516001836020036101000a031916815260200191505b5097505050505050505060405180910390f35b61117b6004803603602081101561116557600080fd5b8101908080359060200190929190505050612b45565b604051808215151515815260200191505060405180910390f35b611258600480360360408110156111ab57600080fd5b81019080803590602001906401000000008111156111c857600080fd5b8201836020820111156111da57600080fd5b803590602001918460018302840111640100000000831117156111fc57600080fd5b91908080601f016020809104026020016040519081016040528093929190818152602001838380828437600081840152601f19601f82011690508083019250505050505050919291929080359060200190929190505050612b6f565b6040518082815260200191505060405180910390f35b611276612c51565b6040518082815260200191505060405180910390f35b611294612c5e565b6040518082815260200191505060405180910390f35b6112b2612c6b565b604051808215151515815260200191505060405180910390f35b6112f8600480360360208110156112e257600080fd5b8101908080359060200190929190505050612cbf565b60405180806020018681526020018573ffffffffffffffffffffffffffffffffffffffff1673ffffffffffffffffffffffffffffffffffffffff168152602001848152602001838152602001828103825287818151815260200191508051906020019080838360005b8381101561137c578082015181840152602081019050611361565b50505050905090810190601f1680156113a95780820380516001836020036101000a031916815260200191505b50965050505050505060405180910390f35b6113e7600480360360208110156113d157600080fd5b8101908080359060200190929190505050612dba565b60405180806020018681526020018573ffffffffffffffffffffffffffffffffffffffff1673ffffffffffffffffffffffffffffffffffffffff168152602001848152602001838152602001828103825287818151815260200191508051906020019080838360005b8381101561146b578082015181840152602081019050611450565b50505050905090810190601f1680156114985780820380516001836020036101000a031916815260200191505b50965050505050505060405180910390f35b6114d6600480360360208110156114c057600080fd5b8101908080359060200190929190505050612eb5565b604051808215151515815260200191505060405180910390f35b61153c6004803603604081101561150657600080fd5b8101908080359060200190929190803573ffffffffffffffffffffffffffffffffffffffff169060200190929190505050612f20565b005b6115806004803603602081101561155457600080fd5b81019080803573ffffffffffffffffffffffffffffffffffffffff169060200190929190505050612f2e565b6040518082815260200191505060405180910390f35b6115c2600480360360208110156115ac57600080fd5b8101908080359060200190929190505050612f46565b604051808273ffffffffffffffffffffffffffffffffffffffff1673ffffffffffffffffffffffffffffffffffffffff16815260200191505060405180910390f35b6116306004803603602081101561161a57600080fd5b8101908080359060200190929190505050612f79565b604051808a8152602001898152602001806020018881526020018773ffffffffffffffffffffffffffffffffffffffff1673ffffffffffffffffffffffffffffffffffffffff1681526020018673ffffffffffffffffffffffffffffffffffffffff1673ffffffffffffffffffffffffffffffffffffffff1681526020018581526020018481526020018060200183810383528a818151815260200191508051906020019080838360005b838110156116f65780820151818401526020810190506116db565b50505050905090810190601f1680156117235780820380516001836020036101000a031916815260200191505b50838103825284818151815260200191508051906020019080838360005b8381101561175c578082015181840152602081019050611741565b50505050905090810190601f1680156117895780820380516001836020036101000a031916815260200191505b509b50505050505050505050505060405180910390f35b6117e0600480360360608110156117b657600080fd5b81019080803590602001909291908035906020019092919080359060200190929190505050612fc2565b604051808215151515815260200191505060405180910390f35b611802612ff7565b6040518082815260200191505060405180910390f35b6118446004803603602081101561182e57600080fd5b8101908080359060200190929190505050613004565b604051808a8152602001898152602001806020018881526020018773ffffffffffffffffffffffffffffffffffffffff1673ffffffffffffffffffffffffffffffffffffffff1681526020018673ffffffffffffffffffffffffffffffffffffffff1673ffffffffffffffffffffffffffffffffffffffff1681526020018581526020018481526020018060200183810383528a818151815260200191508051906020019080838360005b8381101561190a5780820151818401526020810190506118ef565b50505050905090810190601f1680156119375780820380516001836020036101000a031916815260200191505b50838103825284818151815260200191508051906020019080838360005b83811015611970578082015181840152602081019050611955565b50505050905090810190601f16801561199d5780820380516001836020036101000a031916815260200191505b509b50505050505050505050505060405180910390f35b6119bc61304d565b604051808215151515815260200191505060405180910390f35b611a02600480360360208110156119ec57600080fd5b81019080803590602001909291905050506130a1565b005b611a3060048036036020811015611a1a57600080fd5b8101908080359060200190929190505050613179565b604051808273ffffffffffffffffffffffffffffffffffffffff1673ffffffffffffffffffffffffffffffffffffffff16815260200191505060405180910390f35b611a9e60048036036020811015611a8857600080fd5b81019080803590602001909291905050506131ac565b604051808981526020018873ffffffffffffffffffffffffffffffffffffffff1673ffffffffffffffffffffffffffffffffffffffff1681526020018773ffffffffffffffffffffffffffffffffffffffff1673ffffffffffffffffffffffffffffffffffffffff1681526020018681526020018060200185815260200184815260200180602001838103835287818151815260200191508051906020019080838360005b83811015611b5e578082015181840152602081019050611b43565b50505050905090810190601f168015611b8b5780820380516001836020036101000a031916815260200191505b50838103825284818151815260200191508051906020019080838360005b83811015611bc4578082015181840152602081019050611ba9565b50505050905090810190601f168015611bf15780820380516001836020036101000a031916815260200191505b509a505050505050505050505060405180910390f35b611c3360048036036020811015611c1d57600080fd5b8101908080359060200190929190505050613371565b60405180806020018681526020018573ffffffffffffffffffffffffffffffffffffffff1673ffffffffffffffffffffffffffffffffffffffff168152602001848152602001838152602001828103825287818151815260200191508051906020019080838360005b83811015611cb7578082015181840152602081019050611c9c565b50505050905090810190601f168015611ce45780820380516001836020036101000a031916815260200191505b50965050505050505060405180910390f35b611d3860048036036020811015611d0c57600080fd5b81019080803573ffffffffffffffffffffffffffffffffffffffff16906020019092919050505061346c565b604051808215151515815260200191505060405180910390f35b611d5a61348c565b60405180878152602001806020018681526020018573ffffffffffffffffffffffffffffffffffffffff1673ffffffffffffffffffffffffffffffffffffffff168152602001848152602001838152602001828103825287818151815260200191508051906020019080838360005b83811015611de4578082015181840152602081019050611dc9565b50505050905090810190601f168015611e115780820380516001836020036101000a031916815260200191505b5097505050505050505060405180910390f35b600b6020528060005260406000206000915054906101000a900473ffffffffffffffffffffffffffffffffffffffff1681565b600060068381548110611e6657fe5b90600052602060002090600802019050818160020160006101000a81548173ffffffffffffffffffffffffffffffffffffffff021916908373ffffffffffffffffffffffffffffffffffffffff16021790555081600b600085815260200190815260200160002060006101000a81548173ffffffffffffffffffffffffffffffffffffffff021916908373ffffffffffffffffffffffffffffffffffffffff1602179055506040518060400160405280600681526020017f4163717569730000000000000000000000000000000000000000000000000000815250816007019080519060200190611f5892919061471d565b50505050565b600060606000806000806060611f7388612eb5565b611f7c57600080fd5b611f8588611fb3565b9650965096509650965096509650919395979092949650565b6000611fab338484613508565b905092915050565b600060606000806000806060611fc761479d565b60058981548110611fd457fe5b90600052602060002090600602016040518060c0016040529081600082018054600181600116156101000203166002900480601f0160208091040260200160405190810160405280929190818152602001828054600181600116156101000203166002900480156120865780601f1061205b57610100808354040283529160200191612086565b820191906000526020600020905b81548152906001019060200180831161206957829003601f168201915b505050505081526020016001820160009054906101000a900473ffffffffffffffffffffffffffffffffffffffff1673ffffffffffffffffffffffffffffffffffffffff1673ffffffffffffffffffffffffffffffffffffffff168152602001600282015481526020016003820154815260200160048201548152602001600582018054600181600116156101000203166002900480601f01602080910402602001604051908101604052809291908181526020018280546001816001161561010002031660029004801561219c5780601f106121715761010080835404028352916020019161219c565b820191906000526020600020905b81548152906001019060200180831161217f57829003601f168201915b505050505081525050905088816000015182602001518360400151846060015185608001518660a00151859550809050975097509750975097509750975050919395979092949650565b6000806060600080600080600060606121fd6147e9565b60068b8154811061220a57fe5b906000526020600020906008020160405180610100016040529081600082015481526020016001820160009054906101000a900473ffffffffffffffffffffffffffffffffffffffff1673ffffffffffffffffffffffffffffffffffffffff1673ffffffffffffffffffffffffffffffffffffffff1681526020016002820160009054906101000a900473ffffffffffffffffffffffffffffffffffffffff1673ffffffffffffffffffffffffffffffffffffffff1673ffffffffffffffffffffffffffffffffffffffff16815260200160038201548152602001600482018054600181600116156101000203166002900480601f01602080910402602001604051908101604052809291908181526020018280546001816001161561010002031660029004801561237d5780601f106123525761010080835404028352916020019161237d565b820191906000526020600020905b81548152906001019060200180831161236057829003601f168201915b505050505081526020016005820154815260200160068201548152602001600782018054600181600116156101000203166002900480601f0160208091040260200160405190810160405280929190818152602001828054600181600116156101000203166002900480156124335780601f1061240857610100808354040283529160200191612433565b820191906000526020600020905b81548152906001019060200180831161241657829003601f168201915b50505050508152505090508a816000015182608001518360600151846020015185604001518660a001518760c001518860e00151869650809050995099509950995099509950995099509950509193959799909294969850565b6000806000803373ffffffffffffffffffffffffffffffffffffffff1673ffffffffffffffffffffffffffffffffffffffff1681526020019081526020016000205411905090565b60003373ffffffffffffffffffffffffffffffffffffffff16600c600084815260200190815260200160002060009054906101000a900473ffffffffffffffffffffffffffffffffffffffff1673ffffffffffffffffffffffffffffffffffffffff16149050919050565b6000600960003373ffffffffffffffffffffffffffffffffffffffff1673ffffffffffffffffffffffffffffffffffffffff16815260200190815260200160002060009054906101000a900460ff16905090565b60096020528060005260406000206000915054906101000a900460ff1681565b600181815481106125c157fe5b9060005260206000209060050201600091509050806000018054600181600116156101000203166002900480601f01602080910402602001604051908101604052809291908181526020018280546001816001161561010002031660029004801561266d5780601f106126425761010080835404028352916020019161266d565b820191906000526020600020905b81548152906001019060200180831161265057829003601f168201915b5050505050908060010154908060020160009054906101000a900473ffffffffffffffffffffffffffffffffffffffff16908060030154908060040154905085565b60086020528060005260406000206000915054906101000a900460ff1681565b600d6020528060005260406000206000915054906101000a900460ff1681565b60006126fc3384846139e4565b905092915050565b60006060600080600080606061271988612eb5565b61272257600080fd5b61272b88612b45565b61273457600080fd5b61273d88611fb3565b9650965096509650965096509650919395979092949650565b6005818154811061276357fe5b9060005260206000209060060201600091509050806000018054600181600116156101000203166002900480601f01602080910402602001604051908101604052809291908181526020018280546001816001161561010002031660029004801561280f5780601f106127e45761010080835404028352916020019161280f565b820191906000526020600020905b8154815290600101906020018083116127f257829003601f168201915b5050505050908060010160009054906101000a900473ffffffffffffffffffffffffffffffffffffffff1690806002015490806003015490806004015490806005018054600181600116156101000203166002900480601f0160208091040260200160405190810160405280929190818152602001828054600181600116156101000203166002900480156128e55780601f106128ba576101008083540402835291602001916128e5565b820191906000526020600020905b8154815290600101906020018083116128c857829003601f168201915b5050505050905086565b60003373ffffffffffffffffffffffffffffffffffffffff16600b600084815260200190815260200160002060009054906101000a900473ffffffffffffffffffffffffffffffffffffffff1673ffffffffffffffffffffffffffffffffffffffff16149050919050565b60006060600080600080606061296f88612eb5565b61297857600080fd5b61298188612b45565b1561298b57600080fd5b61299488611fb3565b9650965096509650965096509650919395979092949650565b60006129ba338484613bd3565b905092915050565b600060606000806000806129d461485a565b600188815481106129e157fe5b90600052602060002090600502016040518060a0016040529081600082018054600181600116156101000203166002900480601f016020809104026020016040519081016040528092919081815260200182805460018160011615610100020316600290048015612a935780601f10612a6857610100808354040283529160200191612a93565b820191906000526020600020905b815481529060010190602001808311612a7657829003601f168201915b50505050508152602001600182015481526020016002820160009054906101000a900473ffffffffffffffffffffffffffffffffffffffff1673ffffffffffffffffffffffffffffffffffffffff1673ffffffffffffffffffffffffffffffffffffffff16815260200160038201548152602001600482015481525050905087816000015182602001518360400151846060015185608001518494509650965096509650965096505091939550919395565b6000600d600083815260200190815260200160002060009054906101000a900460ff169050919050565b6000612b7961248d565b612b8257600080fd5b60008060003373ffffffffffffffffffffffffffffffffffffffff1673ffffffffffffffffffffffffffffffffffffffff168152602001908152602001600020549050600060018281548110612bd457fe5b9060005260206000209060050201905084816000019080519060200190612bfc92919061471d565b508381600101819055504281600401819055507f179dda4b314caed68129a8b8bbd77c7a4fb092c2d9fb3de452a4f8e4839dc876826040518082815260200191505060405180910390a1819250505092915050565b6000600580549050905090565b6000600680549050905090565b6000600760003373ffffffffffffffffffffffffffffffffffffffff1673ffffffffffffffffffffffffffffffffffffffff16815260200190815260200160002060009054906101000a900460ff16905090565b60038181548110612ccc57fe5b9060005260206000209060050201600091509050806000018054600181600116156101000203166002900480601f016020809104026020016040519081016040528092919081815260200182805460018160011615610100020316600290048015612d785780601f10612d4d57610100808354040283529160200191612d78565b820191906000526020600020905b815481529060010190602001808311612d5b57829003601f168201915b5050505050908060010154908060020160009054906101000a900473ffffffffffffffffffffffffffffffffffffffff16908060030154908060040154905085565b60028181548110612dc757fe5b9060005260206000209060050201600091509050806000018054600181600116156101000203166002900480601f016020809104026020016040519081016040528092919081815260200182805460018160011615610100020316600290048015612e735780601f10612e4857610100808354040283529160200191612e73565b820191906000526020600020905b815481529060010190602001808311612e5657829003601f168201915b5050505050908060010154908060020160009054906101000a900473ffffffffffffffffffffffffffffffffffffffff16908060030154908060040154905085565b60003373ffffffffffffffffffffffffffffffffffffffff16600a600084815260200190815260200160002060009054906101000a900473ffffffffffffffffffffffffffffffffffffffff1673ffffffffffffffffffffffffffffffffffffffff16149050919050565b612f2a8282611e57565b5050565b60006020528060005260406000206000915090505481565b600c6020528060005260406000206000915054906101000a900473ffffffffffffffffffffffffffffffffffffffff1681565b600080606060008060008060006060612f918a6128ef565b612f9a57600080fd5b612fa38a6121e6565b9850985098509850985098509850985098509193959799909294969850565b600080600090505b82811015612feb57612fdd338686613508565b508080600101915050612fca565b50600190509392505050565b6000600180549050905090565b60008060606000806000806000606061301c8a6124d5565b61302557600080fd5b61302e8a6121e6565b9850985098509850985098509850985098509193959799909294969850565b6000600860003373ffffffffffffffffffffffffffffffffffffffff1673ffffffffffffffffffffffffffffffffffffffff16815260200190815260200160002060009054906101000a900460ff16905090565b6000600682815481106130b057fe5b906000526020600020906008020190508060010160009054906101000a900473ffffffffffffffffffffffffffffffffffffffff168160020160006101000a81548173ffffffffffffffffffffffffffffffffffffffff021916908373ffffffffffffffffffffffffffffffffffffffff1602179055506040518060400160405280600681526020017f72656465656d000000000000000000000000000000000000000000000000000081525081600701908051906020019061317492919061471d565b505050565b600a6020528060005260406000206000915054906101000a900473ffffffffffffffffffffffffffffffffffffffff1681565b600681815481106131b957fe5b90600052602060002090600802016000915090508060000154908060010160009054906101000a900473ffffffffffffffffffffffffffffffffffffffff16908060020160009054906101000a900473ffffffffffffffffffffffffffffffffffffffff1690806003015490806004018054600181600116156101000203166002900480601f0160208091040260200160405190810160405280929190818152602001828054600181600116156101000203166002900480156132bd5780601f10613292576101008083540402835291602001916132bd565b820191906000526020600020905b8154815290600101906020018083116132a057829003601f168201915b505050505090806005015490806006015490806007018054600181600116156101000203166002900480601f0160208091040260200160405190810160405280929190818152602001828054600181600116156101000203166002900480156133675780601f1061333c57610100808354040283529160200191613367565b820191906000526020600020905b81548152906001019060200180831161334a57829003601f168201915b5050505050905088565b6004818154811061337e57fe5b9060005260206000209060050201600091509050806000018054600181600116156101000203166002900480601f01602080910402602001604051908101604052809291908181526020018280546001816001161561010002031660029004801561342a5780601f106133ff5761010080835404028352916020019161342a565b820191906000526020600020905b81548152906001019060200180831161340d57829003601f168201915b5050505050908060010154908060020160009054906101000a900473ffffffffffffffffffffffffffffffffffffffff16908060030154908060040154905085565b60076020528060005260406000206000915054906101000a900460ff1681565b6000606060008060008061349e61248d565b6134a757600080fd5b60008060003373ffffffffffffffffffffffffffffffffffffffff1673ffffffffffffffffffffffffffffffffffffffff1681526020019081526020016000205490506134f3816129c2565b96509650965096509650965050909192939495565b6000806006805480919060010161351f91906148a2565b905060006005858154811061353057fe5b906000526020600020906006020190506040518061010001604052808681526020018773ffffffffffffffffffffffffffffffffffffffff168152602001600073ffffffffffffffffffffffffffffffffffffffff16815260200185815260200161363f836000018054600181600116156101000203166002900480601f01602080910402602001604051908101604052809291908181526020018280546001816001161561010002031660029004801561362c5780601f106136015761010080835404028352916020019161362c565b820191906000526020600020905b81548152906001019060200180831161360f57829003601f168201915b505050505061363a8661443a565b6145a9565b8152602001428152602001620d2f00420181526020016040518060400160405280600481526020017f456d6973000000000000000000000000000000000000000000000000000000008152508152506006838154811061369b57fe5b90600052602060002090600802016000820151816000015560208201518160010160006101000a81548173ffffffffffffffffffffffffffffffffffffffff021916908373ffffffffffffffffffffffffffffffffffffffff16021790555060408201518160020160006101000a81548173ffffffffffffffffffffffffffffffffffffffff021916908373ffffffffffffffffffffffffffffffffffffffff1602179055506060820151816003015560808201518160040190805190602001906137679291906148d4565b5060a0820151816005015560c0820151816006015560e08201518160070190805190602001906137989291906148d4565b5090505060606040518060400160405280600481526020017f456d6973000000000000000000000000000000000000000000000000000000008152509050806040516020018082805190602001908083835b6020831061380d57805182526020820191506020810190506020830392506137ea565b6001836020036101000a038019825116818451168082178552505050505050905001915050604051602081830303815290604052805190602001208260050160405160200180828054600181600116156101000203166002900480156138aa5780601f106138885761010080835404028352918201916138aa565b820191906000526020600020905b815481529060010190602001808311613896575b5050915050604051602081830303815290604052805190602001201415613946576001600d600088815260200190815260200160002060006101000a81548160ff0219169083151502179055506040518060400160405280600781526020017f47656e657265720000000000000000000000000000000000000000000000000081525082600501908051906020019061394492919061471d565b505b86600c600085815260200190815260200160002060006101000a81548173ffffffffffffffffffffffffffffffffffffffff021916908373ffffffffffffffffffffffffffffffffffffffff1602179055507f28700021dd1701e85b512a073769cd4eaf02f6f4d2602a27143a7cd107235edc8386604051808381526020018281526020019250505060405180910390a18293505050509392505050565b600080600580548091906001016139fb9190614954565b90506040518060c001604052808581526020018673ffffffffffffffffffffffffffffffffffffffff168152602001848152602001428152602001621a5e00420181526020016040518060400160405280600481526020017f456d69730000000000000000000000000000000000000000000000000000000081525081525060058281548110613a8757fe5b90600052602060002090600602016000820151816000019080519060200190613ab19291906148d4565b5060208201518160010160006101000a81548173ffffffffffffffffffffffffffffffffffffffff021916908373ffffffffffffffffffffffffffffffffffffffff16021790555060408201518160020155606082015181600301556080820151816004015560a0820151816005019080519060200190613b339291906148d4565b5090505084600a600083815260200190815260200160002060006101000a81548173ffffffffffffffffffffffffffffffffffffffff021916908373ffffffffffffffffffffffffffffffffffffffff1602179055507f28700021dd1701e85b512a073769cd4eaf02f6f4d2602a27143a7cd107235edc8184604051808381526020018281526020019250505060405180910390a1809150509392505050565b6000806000808673ffffffffffffffffffffffffffffffffffffffff1673ffffffffffffffffffffffffffffffffffffffff16815260200190815260200160002054905060008114613c2457600080fd5b6001805490506000808773ffffffffffffffffffffffffffffffffffffffff1673ffffffffffffffffffffffffffffffffffffffff16815260200190815260200160002081905550600060018054809190600101613c829190614986565b90506040518060a001604052808681526020018581526020018773ffffffffffffffffffffffffffffffffffffffff1681526020014281526020014281525060018281548110613cce57fe5b90600052602060002090600502016000820151816000019080519060200190613cf89291906148d4565b506020820151816001015560408201518160020160006101000a81548173ffffffffffffffffffffffffffffffffffffffff021916908373ffffffffffffffffffffffffffffffffffffffff1602179055506060820151816003015560808201518160040155905050613d9f6040518060400160405280600881526020017f456d6574746575720000000000000000000000000000000000000000000000008152506146f2565b60405160200180828152602001915050604051602081830303815290604052805190602001208460405160200180828152602001915050604051602081830303815290604052805190602001201415613f9357600760008773ffffffffffffffffffffffffffffffffffffffff1673ffffffffffffffffffffffffffffffffffffffff16815260200190815260200160002060009054906101000a900460ff16613f9257600060028054809190600101613e599190614986565b90506001600760008973ffffffffffffffffffffffffffffffffffffffff1673ffffffffffffffffffffffffffffffffffffffff16815260200190815260200160002060006101000a81548160ff0219169083151502179055506040518060a001604052808781526020018681526020018873ffffffffffffffffffffffffffffffffffffffff1681526020014281526020014281525060028281548110613efd57fe5b90600052602060002090600502016000820151816000019080519060200190613f279291906148d4565b506020820151816001015560408201518160020160006101000a81548173ffffffffffffffffffffffffffffffffffffffff021916908373ffffffffffffffffffffffffffffffffffffffff1602179055506060820151816003015560808201518160040155905050505b5b613fd16040518060400160405280600c81526020017f44697374726962757465757200000000000000000000000000000000000000008152506146f2565b604051602001808281526020019150506040516020818303038152906040528051906020012084604051602001808281526020019150506040516020818303038152906040528051906020012014156141c557600760008773ffffffffffffffffffffffffffffffffffffffff1673ffffffffffffffffffffffffffffffffffffffff16815260200190815260200160002060009054906101000a900460ff166141c45760006003805480919060010161408b9190614986565b90506001600860008973ffffffffffffffffffffffffffffffffffffffff1673ffffffffffffffffffffffffffffffffffffffff16815260200190815260200160002060006101000a81548160ff0219169083151502179055506040518060a001604052808781526020018681526020018873ffffffffffffffffffffffffffffffffffffffff168152602001428152602001428152506003828154811061412f57fe5b906000526020600020906005020160008201518160000190805190602001906141599291906148d4565b506020820151816001015560408201518160020160006101000a81548173ffffffffffffffffffffffffffffffffffffffff021916908373ffffffffffffffffffffffffffffffffffffffff1602179055506060820151816003015560808201518160040155905050505b5b6142036040518060400160405280600c81526020017f436f6e736f6d6d617465757200000000000000000000000000000000000000008152506146f2565b604051602001808281526020019150506040516020818303038152906040528051906020012084604051602001808281526020019150506040516020818303038152906040528051906020012014156143f757600760008773ffffffffffffffffffffffffffffffffffffffff1673ffffffffffffffffffffffffffffffffffffffff16815260200190815260200160002060009054906101000a900460ff166143f6576000600480548091906001016142bd9190614986565b90506001600960008973ffffffffffffffffffffffffffffffffffffffff1673ffffffffffffffffffffffffffffffffffffffff16815260200190815260200160002060006101000a81548160ff0219169083151502179055506040518060a001604052808781526020018681526020018873ffffffffffffffffffffffffffffffffffffffff168152602001428152602001428152506004828154811061436157fe5b9060005260206000209060050201600082015181600001908051906020019061438b9291906148d4565b506020820151816001015560408201518160020160006101000a81548173ffffffffffffffffffffffffffffffffffffffff021916908373ffffffffffffffffffffffffffffffffffffffff1602179055506060820151816003015560808201518160040155905050505b5b7f2456c02735fb44894660d2af194ca5261385d8ee03675e1d75b0da1300a764cd816040518082815260200191505060405180910390a180925050509392505050565b60608060206040519080825280601f01601f1916602001820160405280156144715781602001600182028038833980820191505090505b50905060008090505b60008411156144e9576030600a858161448f57fe5b060160f81b8282815181106144a057fe5b60200101907effffffffffffffffffffffffffffffffffffffffffffffffffffffffffffff1916908160001a905350600a84816144d957fe5b049350808060010191505061447a565b606081806001900392506040519080825280601f01601f1916602001820160405280156145255781602001600182028038833980820191505090505b50905060008090505b815181101561459d578383806001900394508151811061454a57fe5b602001015160f81c60f81b82828151811061456157fe5b60200101907effffffffffffffffffffffffffffffffffffffffffffffffffffffffffffff1916908160001a905350808060010191505061452e565b50809350505050919050565b6060808390506060839050606081518351016040519080825280601f01601f1916602001820160405280156145ed5781602001600182028038833980820191505090505b5090506060819050600080905060008090505b855181101561466e5785818151811061461557fe5b602001015160f81c60f81b83838060010194508151811061463257fe5b60200101907effffffffffffffffffffffffffffffffffffffffffffffffffffffffffffff1916908160001a9053508080600101915050614600565b5060008090505b84518110156146e35784818151811061468a57fe5b602001015160f81c60f81b8383806001019450815181106146a757fe5b60200101907effffffffffffffffffffffffffffffffffffffffffffffffffffffffffffff1916908160001a9053508080600101915050614675565b50819550505050505092915050565b6000606082905060008151141561470f576000801b915050614718565b60208301519150505b919050565b828054600181600116156101000203166002900490600052602060002090601f016020900481019282601f1061475e57805160ff191683800117855561478c565b8280016001018555821561478c579182015b8281111561478b578251825591602001919060010190614770565b5b50905061479991906149b8565b5090565b6040518060c0016040528060608152602001600073ffffffffffffffffffffffffffffffffffffffff168152602001600081526020016000815260200160008152602001606081525090565b60405180610100016040528060008152602001600073ffffffffffffffffffffffffffffffffffffffff168152602001600073ffffffffffffffffffffffffffffffffffffffff16815260200160008152602001606081526020016000815260200160008152602001606081525090565b6040518060a001604052806060815260200160008019168152602001600073ffffffffffffffffffffffffffffffffffffffff16815260200160008152602001600081525090565b8154818355818111156148cf576008028160080283600052602060002091820191016148ce91906149dd565b5b505050565b828054600181600116156101000203166002900490600052602060002090601f016020900481019282601f1061491557805160ff1916838001178555614943565b82800160010185558215614943579182015b82811115614942578251825591602001919060010190614927565b5b50905061495091906149b8565b5090565b815481835581811115614981576006028160060283600052602060002091820191016149809190614a8a565b5b505050565b8154818355818111156149b3576005028160050283600052602060002091820191016149b29190614b08565b5b505050565b6149da91905b808211156149d65760008160009055506001016149be565b5090565b90565b614a8791905b80821115614a83576000808201600090556001820160006101000a81549073ffffffffffffffffffffffffffffffffffffffff02191690556002820160006101000a81549073ffffffffffffffffffffffffffffffffffffffff02191690556003820160009055600482016000614a5a9190614b76565b60058201600090556006820160009055600782016000614a7a9190614b76565b506008016149e3565b5090565b90565b614b0591905b80821115614b015760008082016000614aa99190614b76565b6001820160006101000a81549073ffffffffffffffffffffffffffffffffffffffff0219169055600282016000905560038201600090556004820160009055600582016000614af89190614b76565b50600601614a90565b5090565b90565b614b7391905b80821115614b6f5760008082016000614b279190614b76565b60018201600090556002820160006101000a81549073ffffffffffffffffffffffffffffffffffffffff02191690556003820160009055600482016000905550600501614b0e565b5090565b90565b50805460018160011615610100020316600290046000825580601f10614b9c5750614bbb565b601f016020900490600052602060002090810190614bba91906149b8565b5b5056fea165627a7a72305820ab74a7d9bd22f2091f0651992ecbad7b2f2f44a740478a4cb617207851d448b40029",
  "source": "pragma solidity ^0.5.0;\ncontract Users {\n    \n    \n    struct User {\n        string name;\n        bytes32 status;\n        address walletAddress;\n        uint createdAt;\n        uint updatedAt;\n    }\n    \n    struct Campagne {\n        string name;\n        address campagneEmetteur;\n        uint nombre;\n        uint datedebutAt;\n        uint datefinAt;\n        string etatCampagne;\n    }\n    struct Coupon {\n        uint idCampagne;\n        address couponEmetteur;\n        address proprietaire;\n        uint valeur;\n        string titre;\n        uint datedebutAt;\n        uint datefinAt;\n        string etatCoupon;\n    }\n    \n    \n\n    // it maps the user's wallet address with the user ID\n    mapping (address => uint) public usersIds;\n\n    // Array of User that holds the list of users and their details\n    User[] public users;\n    User[] public emetteurs;\n    User[] public distributeurs;\n    User[] public consommateurs;\n    Campagne[] public lesCampagnes;\n    Coupon[] public lesCoupons;\n    \n    mapping (address => bool) public isEmetteurs;\n    mapping (address => bool) public isDistributeur;\n    mapping (address => bool) public isConsommateur;\n    \n    mapping(uint=>address) public isEmetteurCampagne;\n    //mapping(address=>uint) public isMyCoupon; // determiner les mes coupons\n    mapping(uint=>address) public isProprietraireCoupon; //\n    mapping(uint=>address) public isEmetteurCoupon; //\n    mapping(uint=>bool) public campagneGenerer;\n    // event fired when an user is registered\n    event newUserRegistered(uint id);\n\n    // event fired when the user updates his status or name\n    event userUpdateEvent(uint id);\n\n\n\n    // Modifier: check if the caller of the smart contract is registered\n    modifier checkSenderIsRegistered {\n    \trequire(isRegistered());\n    \t_;\n    }\n    \n    // Modifier: check if the caller of the smart contract is registered\n    modifier checkSenderIsEmetteur {\n    \trequire(CheckIsEmetteur());\n    \t_;\n    }\n    \n    // Modifier: check if the caller of the smart contract is registered\n    modifier checkSenderIsDistributeur {\n    \trequire(CheckIsDistributeur());\n    \t_;\n    }\n      // Modifier: check if the caller of the smart contract is registered\n    modifier checkSenderIsConsommateur {\n    \trequire(CheckIsConsommateur());\n    \t_;\n    }\n\n    /**\n     * Constructor function\n     */\n    constructor() public\n    {\n        addUser(address(0x0), \"\", \"\");\n\n        addUser(address(0x33333213333333), \"Leo Brown\", \"Distributeur\");\n        addUser(address(0x11121111111111), \"John Doe\", \"Emetteur\");\n        addUser(address(0x22222223222222), \"Mary Smith\", \"Distributeur\");\n    }\n\n    event newCouponRegistered(uint id,uint val);\n\n    function addCoupon(address _wAddresse,uint _campagneId,uint _couponValeur ) private\n    returns(uint)\n    {\n        uint idcoup = lesCoupons.length++;\n        Campagne storage cp = lesCampagnes[_campagneId];\n        // storing the new user details\n        lesCoupons[idcoup] = Coupon({\n        \tidCampagne: _campagneId,\n            titre:strConcat(cp.name,toString(idcoup)),\n        \tvaleur: _couponValeur,\n        \tcouponEmetteur: _wAddresse,\n        \tproprietaire:address(0x0),\n        \tdatedebutAt: now,\n        \tdatefinAt: now+10 days,\n        \tetatCoupon:\"Emis\"\n        });\n        string memory varr=\"Emis\";\n        if(keccak256(abi.encodePacked(cp.etatCampagne)) == keccak256(abi.encodePacked(varr))){\n            campagneGenerer[_campagneId]=true;\n            cp.etatCampagne=\"Generer\";\n            \n        }\n       isEmetteurCoupon[idcoup] = _wAddresse;\n       \n               emit newCouponRegistered(idcoup,_couponValeur);\n        return idcoup;\n    }\n    \n    function registerCoupon(uint _campagneId,uint _couponValeur)  public\n    returns(uint)\n    {\n    \treturn addCoupon(msg.sender, _campagneId,_couponValeur);\n    }\n    \n    function genererCoupon(uint _campagneId,uint _couponValeur,uint _nombreCoupon)  public\n    returns(bool)\n    { \n        for(uint i=0 ; i< _nombreCoupon; i++){\n    \t     addCoupon(msg.sender, _campagneId,_couponValeur);\n    \t     //return true;\n        }\n          return true;\n    }\n    \n    function getCouponById(uint _id) public view\n    returns(\n    \tuint,\n    \tuint,\n        string memory,\n    \tuint,\n    \taddress,\n    \taddress,\n    \tuint,\n    \tuint,\n    \tstring memory\n    ) {\n    \tCoupon memory c = lesCoupons[_id];\n\n    \treturn (\n    \t    _id,\n    \t\tc.idCampagne,\n            c.titre,\n    \t\tc.valeur,\n    \t\tc.couponEmetteur,\n    \t\tc.proprietaire,\n    \t\tc.datedebutAt,\n    \t\tc.datefinAt,\n    \t\tc.etatCoupon\n    \t);\n    }\n    \n    function getEmetteurCouponById(uint _id) public view\n    returns(\n\t    uint,\n    \tuint,\n        string memory,\n    \tuint,\n    \taddress,\n    \taddress,\n    \tuint,\n    \tuint,\n    \tstring memory\n    ) {\n    \trequire(CheckIsEmetteurCoupon(_id));\n        return getCouponById(_id);\n    }\n    \n    function getProprietaireCouponById(uint _id) public view\n    returns(\n    \tuint,\n    \tuint,\n        string memory,\n    \tuint,\n    \taddress,\n    \taddress,\n    \tuint,\n    \tuint,\n    \tstring memory\n    ) {\n    \t require(CheckIsProprietaireCoupon(_id));\n         return getCouponById(_id);\n    }\n    event newCampagneRegistered(uint id,uint nbre);\n\n    function addCampagne(address _wAddresse, string memory  _campagneName,uint _campagneValeur) private\n    returns(uint)\n    {\n        uint idcmap = lesCampagnes.length++;\n\n        // storing the new user details\n        lesCampagnes[idcmap] = Campagne({\n        \tname: _campagneName,\n        \tnombre: _campagneValeur,\n        \tcampagneEmetteur: _wAddresse,\n        \tdatedebutAt: now,\n        \tdatefinAt: now+20 days,\n        \tetatCampagne:\"Emis\"\n        });\n        isEmetteurCampagne[idcmap] = _wAddresse;\n        emit newCouponRegistered(idcmap,_campagneValeur);\n        return idcmap;\n    }\n\n    function registerCampagne(string memory  _campagneName,uint _campagneValeur)  public\n    returns(uint)\n    {\n    \treturn addCampagne(msg.sender, _campagneName,_campagneValeur);\n    }\n    \n    function getCampagneById(uint _id) public view\n    returns(\n    \tuint,\n    \tstring memory,\n    \taddress,\n    \tuint,\n    \tuint,\n    \tuint,\n    \tstring memory\n    ) {\n    \t\n    \tCampagne memory cp = lesCampagnes[_id];\n\n    \treturn (\n    \t\t_id,\n    \t\tcp.name,\n    \t\tcp.campagneEmetteur,\n    \t\tcp.nombre,\n    \t\tcp.datedebutAt,\n    \t\tcp.datefinAt,\n    \t\tcp.etatCampagne\n    \t);\n    }\n    \n   function getEmetteurCampagneById(uint _id) public view\n    returns(\n    \tuint,\n    \tstring memory,\n    \taddress,\n    \tuint,\n    \tuint,\n    \tuint,\n    \tstring memory\n    ) {\n        \n    \trequire(CheckIsEmetteurCampagne(_id));\n    \treturn getCampagneById(_id);\n    }\n       function getEmetteurCampagneGenererById(uint _id) public view\n    returns(\n    \tuint,\n    \tstring memory,\n    \taddress,\n    \tuint,\n    \tuint,\n    \tuint,\n    \tstring memory\n    ) {\n    \trequire(CheckIsEmetteurCampagne(_id));\n        require(CheckCampagneGenerer(_id));\n    \treturn getCampagneById(_id);\n    }\n    \n       function getEmetteurNonCampagneGenererById(uint _id) public view\n    returns(\n    \tuint,\n    \tstring memory,\n    \taddress,\n    \tuint,\n    \tuint,\n    \tuint,\n    \tstring memory\n    ) {\n    \trequire(CheckIsEmetteurCampagne(_id));\n        require(!CheckCampagneGenerer(_id));\n    \treturn getCampagneById(_id);\n    }\n   \n    function totalCampagnes() public view returns (uint)\n    {\n       return lesCampagnes.length;\n    }\n   \n    function totalCoupons() public view returns (uint)\n    {\n         return lesCoupons.length;\n    }\n    \n  // Check whether the redeem time is between the span of startTime and endTime.\n  modifier isValidRedeemTime(uint debut,uint fin){\n    require(debut <= now);\n    require(fin >= now);\n    _;\n  } \n\n  // receiver is the owner to be changed to \n  function changeOwnerTo(uint idCoup, address receiver) public  {\n        Coupon storage oldCoupon = lesCoupons[idCoup];\n    \toldCoupon.proprietaire = receiver;\n    \tisProprietraireCoupon[idCoup] = receiver;\n    \toldCoupon.etatCoupon=\"Acquis\";\n    \t//emit ChangeOwnerTo(receiver);\n  }\n\n  // redeem the coupon\n  function redeem(uint idcoup) public {\n     Coupon storage oldCoupon = lesCoupons[idcoup];\n\t oldCoupon.proprietaire = oldCoupon.couponEmetteur;\n\t oldCoupon.etatCoupon=\"redeem\";\n  }\n\n  // transfer the coupon ownership\n  function transfer(uint idcoup ,address receiver) public  {\n    changeOwnerTo(idcoup,receiver);\n  }    \n\n    \n    /**\n     * Function to register a new user.\n     *\n     * @param _userName \t\tThe displaying name\n     * @param _status        The status of the user\n     */\n    function registerUser(string memory _userName, bytes32 _status) public\n    returns(uint)\n    {\n    \treturn addUser(msg.sender, _userName, _status);\n    }\n\n\n\n    /**\n     * Add a new user. This function must be private because an user\n     * cannot insert another user on behalf of someone else.\n     *\n     * @param _wAddr \t\tAddress wallet of the user\n     * @param _userName\t\tDisplaying name of the user\n     * @param _status    \tStatus of the user\n     */\n    function addUser(address _wAddr, string memory  _userName, bytes32 _status) private\n    returns(uint)\n    {\n        // checking if the user is already registered\n        uint userId = usersIds[_wAddr];\n        require (userId == 0);\n\n        // associating the user wallet address with the new ID\n        usersIds[_wAddr] = users.length;\n        uint newUserId = users.length++;\n\n        // storing the new user details\n        users[newUserId] = User({\n        \tname: _userName,\n        \tstatus: _status,\n        \twalletAddress: _wAddr,\n        \tcreatedAt: now,\n        \tupdatedAt: now\n        });\n        if (keccak256(abi.encodePacked(_status)) == keccak256(abi.encodePacked(stringToBytes32(\"Emetteur\"))) ) {\n            \n            if (!isEmetteurs[_wAddr] ) {\n                uint newEmetteurId = emetteurs.length++;\n                isEmetteurs[_wAddr] = true;\n                emetteurs[newEmetteurId]=User({\n        \tname: _userName,\n        \tstatus: _status,\n        \twalletAddress: _wAddr,\n        \tcreatedAt: now,\n        \tupdatedAt: now\n                });\n            }\n            \n        }\n        if (keccak256(abi.encodePacked(_status)) == keccak256(abi.encodePacked(stringToBytes32(\"Distributeur\"))) ) {\n            \n            if (!isEmetteurs[_wAddr] ) {\n                uint newDistributeurId = distributeurs.length++;\n                isDistributeur[_wAddr] = true;\n                distributeurs[newDistributeurId]=User({\n        \tname: _userName,\n        \tstatus: _status,\n        \twalletAddress: _wAddr,\n        \tcreatedAt: now,\n        \tupdatedAt: now\n                });\n            }\n            \n        }\n\n         if (keccak256(abi.encodePacked(_status)) == keccak256(abi.encodePacked(stringToBytes32(\"Consommateur\"))) ) {\n            \n            if (!isEmetteurs[_wAddr] ) {\n                uint newConsommateurId = consommateurs.length++;\n                isConsommateur[_wAddr] = true;\n                consommateurs[newConsommateurId]=User({\n        \tname: _userName,\n        \tstatus: _status,\n        \twalletAddress: _wAddr,\n        \tcreatedAt: now,\n        \tupdatedAt: now\n                });\n            }\n            \n        }\n\n\n        // emitting the event that a new user has been registered\n        emit newUserRegistered(newUserId);\n        \n\n        return newUserId;\n    }\n\n\n\n    /**\n     * Update the user profile of the caller of this method.\n     * Note: the user can modify only his own profile.\n     *\n     * @param _newUserName\tThe new user's displaying name\n     * @param _newStatus \tThe new user's status\n     */\n    function updateUser(string memory _newUserName, bytes32 _newStatus) checkSenderIsRegistered public\n    returns(uint)\n    {\n    \t// An user can modify only his own profile.\n    \tuint userId = usersIds[msg.sender];\n\n    \tUser storage user = users[userId];\n\n    \tuser.name = _newUserName;\n    \tuser.status = _newStatus;\n    \tuser.updatedAt = now;\n\n    \temit userUpdateEvent(userId);\n\n    \treturn userId;\n    }\n\n\n\n    /**\n     * Get the user's profile information.\n     *\n     * @param _id \tThe ID of the user stored on the blockchain.\n     */\n    function getUserById(uint _id) public view\n    returns(\n    \tuint,\n    \tstring memory,\n    \tbytes32,\n    \taddress,\n    \tuint,\n    \tuint\n    ) {\n    \tUser memory i = users[_id];\n\n    \treturn (\n    \t\t_id,\n    \t\ti.name,\n    \t\ti.status,\n    \t\ti.walletAddress,\n    \t\ti.createdAt,\n    \t\ti.updatedAt\n    \t);\n    }\n\n\n\n    /**\n     * Return the profile information of the caller.\n     */\n    function getOwnProfile() checkSenderIsRegistered public view\n    returns(\n    \tuint,\n    \tstring memory,\n    \tbytes32,\n    \taddress,\n    \tuint,\n    \tuint\n    ) {\n    \tuint id = usersIds[msg.sender];\n\n    \treturn getUserById(id);\n    }\n\n\n\n    /**\n     * Check if the user that is calling the smart contract is registered.\n     */\n    function isRegistered() public view returns (bool)\n    {\n    \treturn (usersIds[msg.sender] > 0);\n    }\n\n\n\n    /**\n     * Return the number of total registered users.\n     */\n    function totalUsers() public view returns (uint)\n    {\n        // NOTE: the total registered user is length-1 because the user with\n        // index 0 is empty check the contructor: addUser(address(0x0), \"\", \"\");\n        return users.length;\n    }\n    \n     /*\n    *\n    */\n    function stringToBytes32(string memory testd) internal pure returns (bytes32 rt) {\n        bytes memory tempEmptyStringTest = bytes(testd);\n        if (tempEmptyStringTest.length == 0) {\n            return 0x0;\n        }\n    \n        assembly {\n            rt := mload(add(testd, 32))\n        }\n    }\n\n    /**\n     * Check if the user that is calling the smart contract is emeetteur.\n     */\n    function CheckIsEmetteur() public view returns (bool)\n    {\n    \treturn (isEmetteurs[msg.sender]);\n    }\n\n \n    /**\n     * Check if the user that is calling the smart contract is distributeur.\n     */\n    function CheckIsDistributeur() public view returns (bool)\n    {\n    \treturn (isDistributeur[msg.sender]);\n    }\n    /**\n     * Check if the user that is calling the smart contract is distributeur.\n     */\n    function CheckIsConsommateur() public view returns (bool)\n    {\n    \treturn (isConsommateur[msg.sender]);\n    }\n     function CheckIsEmetteurCampagne(uint id) public view returns (bool)\n    {\n    \treturn (isEmetteurCampagne[id]==msg.sender);\n    }\n     function CheckIsEmetteurCoupon(uint id) public view returns (bool)\n    {\n    \treturn (isEmetteurCoupon[id]==msg.sender);\n    }\n     function CheckIsProprietaireCoupon(uint id) public view returns (bool)\n    {\n    \treturn (isProprietraireCoupon[id]==msg.sender);\n    }\n    function CheckCampagneGenerer(uint id) public view returns (bool)\n    {\n    \treturn (campagneGenerer[id]);\n    }\n\n    function strConcat(string memory _a, string memory _b) internal pure returns (string memory){\n        bytes memory _ba = bytes(_a);\n        bytes memory _bb = bytes(_b);\n        string memory abcde = new string(_ba.length + _bb.length );\n        bytes memory babcde = bytes(abcde);\n        uint k = 0;\n        for (uint i = 0; i < _ba.length; i++) babcde[k++] = _ba[i];\n        for (uint i = 0; i < _bb.length; i++) babcde[k++] = _bb[i];\n        return string(babcde);\n    }\n    function toString(uint _base)\n        internal\n        pure\n        returns (string memory) {\n        bytes memory _tmp = new bytes(32);\n        uint i;\n        for(i = 0;_base > 0;i++) {\n            _tmp[i] = byte(uint8((_base % 10) + 48));\n            _base /= 10;\n        }\n        bytes memory _real = new bytes(i--);\n        for(uint j = 0; j < _real.length; j++) {\n            _real[j] = _tmp[i--];\n        }\n        return string(_real);\n    }\n\n}",
  "sourcePath": "/home/dissirama/projetblockchain/couponschain/contracts/Users.sol",
  "compiler": {
    "name": "solc",
    "version": "0.5.8+commit.23d335f2.Emscripten.clang"
  },
  "schemaVersion": "3.0.11",
  "updatedAt": "2019-09-09T10:08:54.944Z",
  "devdoc": {
    "methods": {
      "getUserById(uint256)": {
        "params": {
          "_id": "The ID of the user stored on the blockchain."
        }
      },
      "registerUser(string,bytes32)": {
        "params": {
          "_status": "The status of the user",
          "_userName": "The displaying name"
        }
      },
      "updateUser(string,bytes32)": {
        "params": {
          "_newStatus": "The new user's status",
          "_newUserName": "The new user's displaying name"
        }
      }
    }
  },
  "userdoc": {
    "methods": {
      "CheckIsConsommateur()": {
        "notice": "Check if the user that is calling the smart contract is distributeur."
      },
      "CheckIsDistributeur()": {
        "notice": "Check if the user that is calling the smart contract is distributeur."
      },
      "CheckIsEmetteur()": {
        "notice": "Check if the user that is calling the smart contract is emeetteur."
      },
      "constructor": "Constructor function",
      "getOwnProfile()": {
        "notice": "Return the profile information of the caller."
      },
      "getUserById(uint256)": {
        "notice": "Get the user's profile information."
      },
      "isRegistered()": {
        "notice": "Check if the user that is calling the smart contract is registered."
      },
      "registerUser(string,bytes32)": {
        "notice": "Function to register a new user."
      },
      "totalUsers()": {
        "notice": "Return the number of total registered users."
      },
      "updateUser(string,bytes32)": {
        "notice": "Update the user profile of the caller of this method. Note: the user can modify only his own profile."
      }
    }
  }
}